{
  "address": "0xe7f1725E7734CE288F8367e1Bb143E90bb3F0512",
  "abi": [
    {
      "inputs": [
        {
          "internalType": "string",
          "name": "tokenUri",
          "type": "string"
        }
      ],
      "stateMutability": "nonpayable",
      "type": "constructor"
    },
    {
      "inputs": [],
      "name": "BasicNft__AlreadyInitialized",
      "type": "error"
    },
    {
      "anonymous": false,
      "inputs": [
        {
          "indexed": true,
          "internalType": "address",
          "name": "owner",
          "type": "address"
        },
        {
          "indexed": true,
          "internalType": "address",
          "name": "approved",
          "type": "address"
        },
        {
          "indexed": true,
          "internalType": "uint256",
          "name": "tokenId",
          "type": "uint256"
        }
      ],
      "name": "Approval",
      "type": "event"
    },
    {
      "anonymous": false,
      "inputs": [
        {
          "indexed": true,
          "internalType": "address",
          "name": "owner",
          "type": "address"
        },
        {
          "indexed": true,
          "internalType": "address",
          "name": "operator",
          "type": "address"
        },
        {
          "indexed": false,
          "internalType": "bool",
          "name": "approved",
          "type": "bool"
        }
      ],
      "name": "ApprovalForAll",
      "type": "event"
    },
    {
      "anonymous": false,
      "inputs": [
        {
          "indexed": true,
          "internalType": "uint256",
          "name": "tokenId",
          "type": "uint256"
        },
        {
          "indexed": true,
          "internalType": "address",
          "name": "ownerAddress",
          "type": "address"
        },
        {
          "indexed": true,
          "internalType": "address",
          "name": "propertyAddress",
          "type": "address"
        }
      ],
      "name": "PropertyMinted",
      "type": "event"
    },
    {
      "anonymous": false,
      "inputs": [
        {
          "indexed": true,
          "internalType": "address",
          "name": "from",
          "type": "address"
        },
        {
          "indexed": true,
          "internalType": "address",
          "name": "to",
          "type": "address"
        },
        {
          "indexed": true,
          "internalType": "uint256",
          "name": "tokenId",
          "type": "uint256"
        }
      ],
      "name": "Transfer",
      "type": "event"
    },
    {
      "inputs": [
        {
          "internalType": "address",
          "name": "to",
          "type": "address"
        },
        {
          "internalType": "uint256",
          "name": "tokenId",
          "type": "uint256"
        }
      ],
      "name": "approve",
      "outputs": [],
      "stateMutability": "nonpayable",
      "type": "function"
    },
    {
      "inputs": [
        {
          "internalType": "address",
          "name": "owner",
          "type": "address"
        }
      ],
      "name": "balanceOf",
      "outputs": [
        {
          "internalType": "uint256",
          "name": "",
          "type": "uint256"
        }
      ],
      "stateMutability": "view",
      "type": "function"
    },
    {
      "inputs": [
        {
          "internalType": "uint256",
          "name": "tokenId",
          "type": "uint256"
        }
      ],
      "name": "getApproved",
      "outputs": [
        {
          "internalType": "address",
          "name": "",
          "type": "address"
        }
      ],
      "stateMutability": "view",
      "type": "function"
    },
    {
      "inputs": [],
      "name": "getInitialized",
      "outputs": [
        {
          "internalType": "bool",
          "name": "",
          "type": "bool"
        }
      ],
      "stateMutability": "view",
      "type": "function"
    },
    {
      "inputs": [],
      "name": "getTokenCounter",
      "outputs": [
        {
          "internalType": "uint256",
          "name": "",
          "type": "uint256"
        }
      ],
      "stateMutability": "view",
      "type": "function"
    },
    {
      "inputs": [],
      "name": "getTokenUri",
      "outputs": [
        {
          "internalType": "string",
          "name": "",
          "type": "string"
        }
      ],
      "stateMutability": "view",
      "type": "function"
    },
    {
      "inputs": [
        {
          "internalType": "address",
          "name": "owner",
          "type": "address"
        },
        {
          "internalType": "address",
          "name": "operator",
          "type": "address"
        }
      ],
      "name": "isApprovedForAll",
      "outputs": [
        {
          "internalType": "bool",
          "name": "",
          "type": "bool"
        }
      ],
      "stateMutability": "view",
      "type": "function"
    },
    {
      "inputs": [],
      "name": "mintNft",
      "outputs": [],
      "stateMutability": "nonpayable",
      "type": "function"
    },
    {
      "inputs": [],
      "name": "name",
      "outputs": [
        {
          "internalType": "string",
          "name": "",
          "type": "string"
        }
      ],
      "stateMutability": "view",
      "type": "function"
    },
    {
      "inputs": [
        {
          "internalType": "uint256",
          "name": "tokenId",
          "type": "uint256"
        }
      ],
      "name": "ownerOf",
      "outputs": [
        {
          "internalType": "address",
          "name": "",
          "type": "address"
        }
      ],
      "stateMutability": "view",
      "type": "function"
    },
    {
      "inputs": [
        {
          "internalType": "address",
          "name": "from",
          "type": "address"
        },
        {
          "internalType": "address",
          "name": "to",
          "type": "address"
        },
        {
          "internalType": "uint256",
          "name": "tokenId",
          "type": "uint256"
        }
      ],
      "name": "safeTransferFrom",
      "outputs": [],
      "stateMutability": "nonpayable",
      "type": "function"
    },
    {
      "inputs": [
        {
          "internalType": "address",
          "name": "from",
          "type": "address"
        },
        {
          "internalType": "address",
          "name": "to",
          "type": "address"
        },
        {
          "internalType": "uint256",
          "name": "tokenId",
          "type": "uint256"
        },
        {
          "internalType": "bytes",
          "name": "data",
          "type": "bytes"
        }
      ],
      "name": "safeTransferFrom",
      "outputs": [],
      "stateMutability": "nonpayable",
      "type": "function"
    },
    {
      "inputs": [
        {
          "internalType": "address",
          "name": "operator",
          "type": "address"
        },
        {
          "internalType": "bool",
          "name": "approved",
          "type": "bool"
        }
      ],
      "name": "setApprovalForAll",
      "outputs": [],
      "stateMutability": "nonpayable",
      "type": "function"
    },
    {
      "inputs": [
        {
          "internalType": "bytes4",
          "name": "interfaceId",
          "type": "bytes4"
        }
      ],
      "name": "supportsInterface",
      "outputs": [
        {
          "internalType": "bool",
          "name": "",
          "type": "bool"
        }
      ],
      "stateMutability": "view",
      "type": "function"
    },
    {
      "inputs": [],
      "name": "symbol",
      "outputs": [
        {
          "internalType": "string",
          "name": "",
          "type": "string"
        }
      ],
      "stateMutability": "view",
      "type": "function"
    },
    {
      "inputs": [
        {
          "internalType": "uint256",
          "name": "tokenId",
          "type": "uint256"
        }
      ],
      "name": "tokenURI",
      "outputs": [
        {
          "internalType": "string",
          "name": "",
          "type": "string"
        }
      ],
      "stateMutability": "view",
      "type": "function"
    },
    {
      "inputs": [
        {
          "internalType": "address",
          "name": "from",
          "type": "address"
        },
        {
          "internalType": "address",
          "name": "to",
          "type": "address"
        },
        {
          "internalType": "uint256",
          "name": "tokenId",
          "type": "uint256"
        }
      ],
      "name": "transferFrom",
      "outputs": [],
      "stateMutability": "nonpayable",
      "type": "function"
    }
  ],
  "transactionHash": "0x381e296c7414bce5a2b4b0f42b37fbf1814cc2bb1e1ec539032720ccfb98ab1b",
  "args": [
    "ipfs://QmaVkBn2tKmjbhphU7eyztbvSQU5EXDdqRyXZtRhSGgJGo"
  ],
  "numDeployments": 1,
  "solcInputHash": "462b06f4cd4af27a5cfc601ce4df0f88",
  "bytecode": "0x60806040523480156200001157600080fd5b50604051620033d1380380620033d18339818101604052810190620000379190620002f4565b6040518060400160405280600f81526020017f4f776e596f757250726f706572747900000000000000000000000000000000008152506040518060400160405280600381526020017f4f595000000000000000000000000000000000000000000000000000000000008152508160009081620000b4919062000590565b508060019081620000c6919062000590565b505050620000da81620000e960201b60201c565b60006007819055505062000677565b600960009054906101000a900460ff161562000131576040517fc45080b200000000000000000000000000000000000000000000000000000000815260040160405180910390fd5b806008908162000142919062000590565b506001600960006101000a81548160ff02191690831515021790555050565b6000604051905090565b600080fd5b600080fd5b600080fd5b600080fd5b6000601f19601f8301169050919050565b7f4e487b7100000000000000000000000000000000000000000000000000000000600052604160045260246000fd5b620001ca826200017f565b810181811067ffffffffffffffff82111715620001ec57620001eb62000190565b5b80604052505050565b60006200020162000161565b90506200020f8282620001bf565b919050565b600067ffffffffffffffff82111562000232576200023162000190565b5b6200023d826200017f565b9050602081019050919050565b60005b838110156200026a5780820151818401526020810190506200024d565b60008484015250505050565b60006200028d620002878462000214565b620001f5565b905082815260208101848484011115620002ac57620002ab6200017a565b5b620002b98482856200024a565b509392505050565b600082601f830112620002d957620002d862000175565b5b8151620002eb84826020860162000276565b91505092915050565b6000602082840312156200030d576200030c6200016b565b5b600082015167ffffffffffffffff8111156200032e576200032d62000170565b5b6200033c84828501620002c1565b91505092915050565b600081519050919050565b7f4e487b7100000000000000000000000000000000000000000000000000000000600052602260045260246000fd5b600060028204905060018216806200039857607f821691505b602082108103620003ae57620003ad62000350565b5b50919050565b60008190508160005260206000209050919050565b60006020601f8301049050919050565b600082821b905092915050565b600060088302620004187fffffffffffffffffffffffffffffffffffffffffffffffffffffffffffffffff82620003d9565b620004248683620003d9565b95508019841693508086168417925050509392505050565b6000819050919050565b6000819050919050565b6000620004716200046b62000465846200043c565b62000446565b6200043c565b9050919050565b6000819050919050565b6200048d8362000450565b620004a56200049c8262000478565b848454620003e6565b825550505050565b600090565b620004bc620004ad565b620004c981848462000482565b505050565b5b81811015620004f157620004e5600082620004b2565b600181019050620004cf565b5050565b601f82111562000540576200050a81620003b4565b6200051584620003c9565b8101602085101562000525578190505b6200053d6200053485620003c9565b830182620004ce565b50505b505050565b600082821c905092915050565b6000620005656000198460080262000545565b1980831691505092915050565b600062000580838362000552565b9150826002028217905092915050565b6200059b8262000345565b67ffffffffffffffff811115620005b757620005b662000190565b5b620005c382546200037f565b620005d0828285620004f5565b600060209050601f831160018114620006085760008415620005f3578287015190505b620005ff858262000572565b8655506200066f565b601f1984166200061886620003b4565b60005b8281101562000642578489015182556001820191506020850194506020810190506200061b565b868310156200066257848901516200065e601f89168262000552565b8355505b6001600288020188555050505b505050505050565b612d4a80620006876000396000f3fe608060405234801561001057600080fd5b506004361061010b5760003560e01c806370a08231116100a2578063c2229fea11610071578063c2229fea146102b6578063c395c8af146102c0578063c87b56dd146102de578063e985e9c51461030e578063ee89dab41461033e5761010b565b806370a082311461023057806395d89b4114610260578063a22cb4651461027e578063b88d4fde1461029a5761010b565b806323b872dd116100de57806323b872dd146101aa57806342842e0e146101c65780636352211e146101e25780636e02007d146102125761010b565b806301ffc9a71461011057806306fdde0314610140578063081812fc1461015e578063095ea7b31461018e575b600080fd5b61012a60048036038101906101259190611c9f565b61035c565b6040516101379190611ce7565b60405180910390f35b61014861043e565b6040516101559190611d92565b60405180910390f35b61017860048036038101906101739190611dea565b6104d0565b6040516101859190611e58565b60405180910390f35b6101a860048036038101906101a39190611e9f565b610516565b005b6101c460048036038101906101bf9190611edf565b61062d565b005b6101e060048036038101906101db9190611edf565b61068d565b005b6101fc60048036038101906101f79190611dea565b6106ad565b6040516102099190611e58565b60405180910390f35b61021a610733565b6040516102279190611f41565b60405180910390f35b61024a60048036038101906102459190611f5c565b61073d565b6040516102579190611f41565b60405180910390f35b6102686107f4565b6040516102759190611d92565b60405180910390f35b61029860048036038101906102939190611fb5565b610886565b005b6102b460048036038101906102af919061212a565b61089c565b005b6102be6108fe565b005b6102c8610a21565b6040516102d59190611d92565b60405180910390f35b6102f860048036038101906102f39190611dea565b610ab3565b6040516103059190611d92565b60405180910390f35b610328600480360381019061032391906121ad565b610bc5565b6040516103359190611ce7565b60405180910390f35b610346610c59565b6040516103539190611ce7565b60405180910390f35b60007f80ac58cd000000000000000000000000000000000000000000000000000000007bffffffffffffffffffffffffffffffffffffffffffffffffffffffff1916827bffffffffffffffffffffffffffffffffffffffffffffffffffffffff1916148061042757507f5b5e139f000000000000000000000000000000000000000000000000000000007bffffffffffffffffffffffffffffffffffffffffffffffffffffffff1916827bffffffffffffffffffffffffffffffffffffffffffffffffffffffff1916145b80610437575061043682610c70565b5b9050919050565b60606000805461044d9061221c565b80601f01602080910402602001604051908101604052809291908181526020018280546104799061221c565b80156104c65780601f1061049b576101008083540402835291602001916104c6565b820191906000526020600020905b8154815290600101906020018083116104a957829003601f168201915b5050505050905090565b60006104db82610cda565b6004600083815260200190815260200160002060009054906101000a900473ffffffffffffffffffffffffffffffffffffffff169050919050565b6000610521826106ad565b90508073ffffffffffffffffffffffffffffffffffffffff168373ffffffffffffffffffffffffffffffffffffffff1603610591576040517f08c379a0000000000000000000000000000000000000000000000000000000008152600401610588906122bf565b60405180910390fd5b8073ffffffffffffffffffffffffffffffffffffffff166105b0610d25565b73ffffffffffffffffffffffffffffffffffffffff1614806105df57506105de816105d9610d25565b610bc5565b5b61061e576040517f08c379a000000000000000000000000000000000000000000000000000000000815260040161061590612351565b60405180910390fd5b6106288383610d2d565b505050565b61063e610638610d25565b82610de6565b61067d576040517f08c379a0000000000000000000000000000000000000000000000000000000008152600401610674906123e3565b60405180910390fd5b610688838383610e7b565b505050565b6106a88383836040518060200160405280600081525061089c565b505050565b6000806106b983611174565b9050600073ffffffffffffffffffffffffffffffffffffffff168173ffffffffffffffffffffffffffffffffffffffff160361072a576040517f08c379a00000000000000000000000000000000000000000000000000000000081526004016107219061244f565b60405180910390fd5b80915050919050565b6000600754905090565b60008073ffffffffffffffffffffffffffffffffffffffff168273ffffffffffffffffffffffffffffffffffffffff16036107ad576040517f08c379a00000000000000000000000000000000000000000000000000000000081526004016107a4906124e1565b60405180910390fd5b600360008373ffffffffffffffffffffffffffffffffffffffff1673ffffffffffffffffffffffffffffffffffffffff168152602001908152602001600020549050919050565b6060600180546108039061221c565b80601f016020809104026020016040519081016040528092919081815260200182805461082f9061221c565b801561087c5780601f106108515761010080835404028352916020019161087c565b820191906000526020600020905b81548152906001019060200180831161085f57829003601f168201915b5050505050905090565b610898610891610d25565b83836111b1565b5050565b6108ad6108a7610d25565b83610de6565b6108ec576040517f08c379a00000000000000000000000000000000000000000000000000000000081526004016108e3906123e3565b60405180910390fd5b6108f88484848461131d565b50505050565b600060075490506001600760008282546109189190612530565b9250508190555061092b33600754611379565b6109c16007546008805461093e9061221c565b80601f016020809104026020016040519081016040528092919081815260200182805461096a9061221c565b80156109b75780601f1061098c576101008083540402835291602001916109b7565b820191906000526020600020905b81548152906001019060200180831161099a57829003601f168201915b5050505050611397565b3073ffffffffffffffffffffffffffffffffffffffff163373ffffffffffffffffffffffffffffffffffffffff166007547f281e6bca59c0ded461563e53c1734e144345053c65610a7dd17645d71af74e3a60405160405180910390a450565b606060088054610a309061221c565b80601f0160208091040260200160405190810160405280929190818152602001828054610a5c9061221c565b8015610aa95780601f10610a7e57610100808354040283529160200191610aa9565b820191906000526020600020905b815481529060010190602001808311610a8c57829003601f168201915b5050505050905090565b6060610abe82610cda565b6000600660008481526020019081526020016000208054610ade9061221c565b80601f0160208091040260200160405190810160405280929190818152602001828054610b0a9061221c565b8015610b575780601f10610b2c57610100808354040283529160200191610b57565b820191906000526020600020905b815481529060010190602001808311610b3a57829003601f168201915b505050505090506000610b68611404565b90506000815103610b7d578192505050610bc0565b600082511115610bb2578082604051602001610b9a9291906125a0565b60405160208183030381529060405292505050610bc0565b610bbb8461141b565b925050505b919050565b6000600560008473ffffffffffffffffffffffffffffffffffffffff1673ffffffffffffffffffffffffffffffffffffffff16815260200190815260200160002060008373ffffffffffffffffffffffffffffffffffffffff1673ffffffffffffffffffffffffffffffffffffffff16815260200190815260200160002060009054906101000a900460ff16905092915050565b6000600960009054906101000a900460ff16905090565b60007f01ffc9a7000000000000000000000000000000000000000000000000000000007bffffffffffffffffffffffffffffffffffffffffffffffffffffffff1916827bffffffffffffffffffffffffffffffffffffffffffffffffffffffff1916149050919050565b610ce381611483565b610d22576040517f08c379a0000000000000000000000000000000000000000000000000000000008152600401610d199061244f565b60405180910390fd5b50565b600033905090565b816004600083815260200190815260200160002060006101000a81548173ffffffffffffffffffffffffffffffffffffffff021916908373ffffffffffffffffffffffffffffffffffffffff160217905550808273ffffffffffffffffffffffffffffffffffffffff16610da0836106ad565b73ffffffffffffffffffffffffffffffffffffffff167f8c5be1e5ebec7d5bd14f71427d1e84f3dd0314c0f7b2291e5b200ac8c7c3b92560405160405180910390a45050565b600080610df2836106ad565b90508073ffffffffffffffffffffffffffffffffffffffff168473ffffffffffffffffffffffffffffffffffffffff161480610e345750610e338185610bc5565b5b80610e7257508373ffffffffffffffffffffffffffffffffffffffff16610e5a846104d0565b73ffffffffffffffffffffffffffffffffffffffff16145b91505092915050565b8273ffffffffffffffffffffffffffffffffffffffff16610e9b826106ad565b73ffffffffffffffffffffffffffffffffffffffff1614610ef1576040517f08c379a0000000000000000000000000000000000000000000000000000000008152600401610ee890612636565b60405180910390fd5b600073ffffffffffffffffffffffffffffffffffffffff168273ffffffffffffffffffffffffffffffffffffffff1603610f60576040517f08c379a0000000000000000000000000000000000000000000000000000000008152600401610f57906126c8565b60405180910390fd5b610f6d83838360016114c4565b8273ffffffffffffffffffffffffffffffffffffffff16610f8d826106ad565b73ffffffffffffffffffffffffffffffffffffffff1614610fe3576040517f08c379a0000000000000000000000000000000000000000000000000000000008152600401610fda90612636565b60405180910390fd5b6004600082815260200190815260200160002060006101000a81549073ffffffffffffffffffffffffffffffffffffffff02191690556001600360008573ffffffffffffffffffffffffffffffffffffffff1673ffffffffffffffffffffffffffffffffffffffff168152602001908152602001600020600082825403925050819055506001600360008473ffffffffffffffffffffffffffffffffffffffff1673ffffffffffffffffffffffffffffffffffffffff16815260200190815260200160002060008282540192505081905550816002600083815260200190815260200160002060006101000a81548173ffffffffffffffffffffffffffffffffffffffff021916908373ffffffffffffffffffffffffffffffffffffffff160217905550808273ffffffffffffffffffffffffffffffffffffffff168473ffffffffffffffffffffffffffffffffffffffff167fddf252ad1be2c89b69c2b068fc378daa952ba7f163c4a11628f55a4df523b3ef60405160405180910390a461116f83838360016115ea565b505050565b60006002600083815260200190815260200160002060009054906101000a900473ffffffffffffffffffffffffffffffffffffffff169050919050565b8173ffffffffffffffffffffffffffffffffffffffff168373ffffffffffffffffffffffffffffffffffffffff160361121f576040517f08c379a000000000000000000000000000000000000000000000000000000000815260040161121690612734565b60405180910390fd5b80600560008573ffffffffffffffffffffffffffffffffffffffff1673ffffffffffffffffffffffffffffffffffffffff16815260200190815260200160002060008473ffffffffffffffffffffffffffffffffffffffff1673ffffffffffffffffffffffffffffffffffffffff16815260200190815260200160002060006101000a81548160ff0219169083151502179055508173ffffffffffffffffffffffffffffffffffffffff168373ffffffffffffffffffffffffffffffffffffffff167f17307eab39ab6107e8899845ad3d59bd9653f200f220920489ca2b5937696c31836040516113109190611ce7565b60405180910390a3505050565b611328848484610e7b565b611334848484846115f0565b611373576040517f08c379a000000000000000000000000000000000000000000000000000000000815260040161136a906127c6565b60405180910390fd5b50505050565b611393828260405180602001604052806000815250611777565b5050565b6113a082611483565b6113df576040517f08c379a00000000000000000000000000000000000000000000000000000000081526004016113d690612858565b60405180910390fd5b806006600084815260200190815260200160002090816113ff9190612a24565b505050565b606060405180602001604052806000815250905090565b606061142682610cda565b6000611430611404565b90506000815111611450576040518060200160405280600081525061147b565b8061145a846117d2565b60405160200161146b9291906125a0565b6040516020818303038152906040525b915050919050565b60008073ffffffffffffffffffffffffffffffffffffffff166114a583611174565b73ffffffffffffffffffffffffffffffffffffffff1614159050919050565b60018111156115e457600073ffffffffffffffffffffffffffffffffffffffff168473ffffffffffffffffffffffffffffffffffffffff16146115585780600360008673ffffffffffffffffffffffffffffffffffffffff1673ffffffffffffffffffffffffffffffffffffffff16815260200190815260200160002060008282546115509190612af6565b925050819055505b600073ffffffffffffffffffffffffffffffffffffffff168373ffffffffffffffffffffffffffffffffffffffff16146115e35780600360008573ffffffffffffffffffffffffffffffffffffffff1673ffffffffffffffffffffffffffffffffffffffff16815260200190815260200160002060008282546115db9190612530565b925050819055505b5b50505050565b50505050565b60006116118473ffffffffffffffffffffffffffffffffffffffff166118a0565b1561176a578373ffffffffffffffffffffffffffffffffffffffff1663150b7a0261163a610d25565b8786866040518563ffffffff1660e01b815260040161165c9493929190612b7f565b6020604051808303816000875af192505050801561169857506040513d601f19601f820116820180604052508101906116959190612be0565b60015b61171a573d80600081146116c8576040519150601f19603f3d011682016040523d82523d6000602084013e6116cd565b606091505b506000815103611712576040517f08c379a0000000000000000000000000000000000000000000000000000000008152600401611709906127c6565b60405180910390fd5b805181602001fd5b63150b7a0260e01b7bffffffffffffffffffffffffffffffffffffffffffffffffffffffff1916817bffffffffffffffffffffffffffffffffffffffffffffffffffffffff19161491505061176f565b600190505b949350505050565b61178183836118c3565b61178e60008484846115f0565b6117cd576040517f08c379a00000000000000000000000000000000000000000000000000000000081526004016117c4906127c6565b60405180910390fd5b505050565b6060600060016117e184611ae0565b01905060008167ffffffffffffffff811115611800576117ff611fff565b5b6040519080825280601f01601f1916602001820160405280156118325781602001600182028036833780820191505090505b509050600082602001820190505b600115611895578080600190039150507f3031323334353637383961626364656600000000000000000000000000000000600a86061a8153600a858161188957611888612c0d565b5b04945060008503611840575b819350505050919050565b6000808273ffffffffffffffffffffffffffffffffffffffff163b119050919050565b600073ffffffffffffffffffffffffffffffffffffffff168273ffffffffffffffffffffffffffffffffffffffff1603611932576040517f08c379a000000000000000000000000000000000000000000000000000000000815260040161192990612c88565b60405180910390fd5b61193b81611483565b1561197b576040517f08c379a000000000000000000000000000000000000000000000000000000000815260040161197290612cf4565b60405180910390fd5b6119896000838360016114c4565b61199281611483565b156119d2576040517f08c379a00000000000000000000000000000000000000000000000000000000081526004016119c990612cf4565b60405180910390fd5b6001600360008473ffffffffffffffffffffffffffffffffffffffff1673ffffffffffffffffffffffffffffffffffffffff16815260200190815260200160002060008282540192505081905550816002600083815260200190815260200160002060006101000a81548173ffffffffffffffffffffffffffffffffffffffff021916908373ffffffffffffffffffffffffffffffffffffffff160217905550808273ffffffffffffffffffffffffffffffffffffffff16600073ffffffffffffffffffffffffffffffffffffffff167fddf252ad1be2c89b69c2b068fc378daa952ba7f163c4a11628f55a4df523b3ef60405160405180910390a4611adc6000838360016115ea565b5050565b600080600090507a184f03e93ff9f4daa797ed6e38ed64bf6a1f0100000000000000008310611b3e577a184f03e93ff9f4daa797ed6e38ed64bf6a1f0100000000000000008381611b3457611b33612c0d565b5b0492506040810190505b6d04ee2d6d415b85acef81000000008310611b7b576d04ee2d6d415b85acef81000000008381611b7157611b70612c0d565b5b0492506020810190505b662386f26fc100008310611baa57662386f26fc100008381611ba057611b9f612c0d565b5b0492506010810190505b6305f5e1008310611bd3576305f5e1008381611bc957611bc8612c0d565b5b0492506008810190505b6127108310611bf8576127108381611bee57611bed612c0d565b5b0492506004810190505b60648310611c1b5760648381611c1157611c10612c0d565b5b0492506002810190505b600a8310611c2a576001810190505b80915050919050565b6000604051905090565b600080fd5b600080fd5b60007fffffffff0000000000000000000000000000000000000000000000000000000082169050919050565b611c7c81611c47565b8114611c8757600080fd5b50565b600081359050611c9981611c73565b92915050565b600060208284031215611cb557611cb4611c3d565b5b6000611cc384828501611c8a565b91505092915050565b60008115159050919050565b611ce181611ccc565b82525050565b6000602082019050611cfc6000830184611cd8565b92915050565b600081519050919050565b600082825260208201905092915050565b60005b83811015611d3c578082015181840152602081019050611d21565b60008484015250505050565b6000601f19601f8301169050919050565b6000611d6482611d02565b611d6e8185611d0d565b9350611d7e818560208601611d1e565b611d8781611d48565b840191505092915050565b60006020820190508181036000830152611dac8184611d59565b905092915050565b6000819050919050565b611dc781611db4565b8114611dd257600080fd5b50565b600081359050611de481611dbe565b92915050565b600060208284031215611e0057611dff611c3d565b5b6000611e0e84828501611dd5565b91505092915050565b600073ffffffffffffffffffffffffffffffffffffffff82169050919050565b6000611e4282611e17565b9050919050565b611e5281611e37565b82525050565b6000602082019050611e6d6000830184611e49565b92915050565b611e7c81611e37565b8114611e8757600080fd5b50565b600081359050611e9981611e73565b92915050565b60008060408385031215611eb657611eb5611c3d565b5b6000611ec485828601611e8a565b9250506020611ed585828601611dd5565b9150509250929050565b600080600060608486031215611ef857611ef7611c3d565b5b6000611f0686828701611e8a565b9350506020611f1786828701611e8a565b9250506040611f2886828701611dd5565b9150509250925092565b611f3b81611db4565b82525050565b6000602082019050611f566000830184611f32565b92915050565b600060208284031215611f7257611f71611c3d565b5b6000611f8084828501611e8a565b91505092915050565b611f9281611ccc565b8114611f9d57600080fd5b50565b600081359050611faf81611f89565b92915050565b60008060408385031215611fcc57611fcb611c3d565b5b6000611fda85828601611e8a565b9250506020611feb85828601611fa0565b9150509250929050565b600080fd5b600080fd5b7f4e487b7100000000000000000000000000000000000000000000000000000000600052604160045260246000fd5b61203782611d48565b810181811067ffffffffffffffff8211171561205657612055611fff565b5b80604052505050565b6000612069611c33565b9050612075828261202e565b919050565b600067ffffffffffffffff82111561209557612094611fff565b5b61209e82611d48565b9050602081019050919050565b82818337600083830152505050565b60006120cd6120c88461207a565b61205f565b9050828152602081018484840111156120e9576120e8611ffa565b5b6120f48482856120ab565b509392505050565b600082601f83011261211157612110611ff5565b5b81356121218482602086016120ba565b91505092915050565b6000806000806080858703121561214457612143611c3d565b5b600061215287828801611e8a565b945050602061216387828801611e8a565b935050604061217487828801611dd5565b925050606085013567ffffffffffffffff81111561219557612194611c42565b5b6121a1878288016120fc565b91505092959194509250565b600080604083850312156121c4576121c3611c3d565b5b60006121d285828601611e8a565b92505060206121e385828601611e8a565b9150509250929050565b7f4e487b7100000000000000000000000000000000000000000000000000000000600052602260045260246000fd5b6000600282049050600182168061223457607f821691505b602082108103612247576122466121ed565b5b50919050565b7f4552433732313a20617070726f76616c20746f2063757272656e74206f776e6560008201527f7200000000000000000000000000000000000000000000000000000000000000602082015250565b60006122a9602183611d0d565b91506122b48261224d565b604082019050919050565b600060208201905081810360008301526122d88161229c565b9050919050565b7f4552433732313a20617070726f76652063616c6c6572206973206e6f7420746f60008201527f6b656e206f776e6572206f7220617070726f76656420666f7220616c6c000000602082015250565b600061233b603d83611d0d565b9150612346826122df565b604082019050919050565b6000602082019050818103600083015261236a8161232e565b9050919050565b7f4552433732313a2063616c6c6572206973206e6f7420746f6b656e206f776e6560008201527f72206f7220617070726f76656400000000000000000000000000000000000000602082015250565b60006123cd602d83611d0d565b91506123d882612371565b604082019050919050565b600060208201905081810360008301526123fc816123c0565b9050919050565b7f4552433732313a20696e76616c696420746f6b656e2049440000000000000000600082015250565b6000612439601883611d0d565b915061244482612403565b602082019050919050565b600060208201905081810360008301526124688161242c565b9050919050565b7f4552433732313a2061646472657373207a65726f206973206e6f74206120766160008201527f6c6964206f776e65720000000000000000000000000000000000000000000000602082015250565b60006124cb602983611d0d565b91506124d68261246f565b604082019050919050565b600060208201905081810360008301526124fa816124be565b9050919050565b7f4e487b7100000000000000000000000000000000000000000000000000000000600052601160045260246000fd5b600061253b82611db4565b915061254683611db4565b925082820190508082111561255e5761255d612501565b5b92915050565b600081905092915050565b600061257a82611d02565b6125848185612564565b9350612594818560208601611d1e565b80840191505092915050565b60006125ac828561256f565b91506125b8828461256f565b91508190509392505050565b7f4552433732313a207472616e736665722066726f6d20696e636f72726563742060008201527f6f776e6572000000000000000000000000000000000000000000000000000000602082015250565b6000612620602583611d0d565b915061262b826125c4565b604082019050919050565b6000602082019050818103600083015261264f81612613565b9050919050565b7f4552433732313a207472616e7366657220746f20746865207a65726f2061646460008201527f7265737300000000000000000000000000000000000000000000000000000000602082015250565b60006126b2602483611d0d565b91506126bd82612656565b604082019050919050565b600060208201905081810360008301526126e1816126a5565b9050919050565b7f4552433732313a20617070726f766520746f2063616c6c657200000000000000600082015250565b600061271e601983611d0d565b9150612729826126e8565b602082019050919050565b6000602082019050818103600083015261274d81612711565b9050919050565b7f4552433732313a207472616e7366657220746f206e6f6e20455243373231526560008201527f63656976657220696d706c656d656e7465720000000000000000000000000000602082015250565b60006127b0603283611d0d565b91506127bb82612754565b604082019050919050565b600060208201905081810360008301526127df816127a3565b9050919050565b7f45524337323155524953746f726167653a2055524920736574206f66206e6f6e60008201527f6578697374656e7420746f6b656e000000000000000000000000000000000000602082015250565b6000612842602e83611d0d565b915061284d826127e6565b604082019050919050565b6000602082019050818103600083015261287181612835565b9050919050565b60008190508160005260206000209050919050565b60006020601f8301049050919050565b600082821b905092915050565b6000600883026128da7fffffffffffffffffffffffffffffffffffffffffffffffffffffffffffffffff8261289d565b6128e4868361289d565b95508019841693508086168417925050509392505050565b6000819050919050565b600061292161291c61291784611db4565b6128fc565b611db4565b9050919050565b6000819050919050565b61293b83612906565b61294f61294782612928565b8484546128aa565b825550505050565b600090565b612964612957565b61296f818484612932565b505050565b5b818110156129935761298860008261295c565b600181019050612975565b5050565b601f8211156129d8576129a981612878565b6129b28461288d565b810160208510156129c1578190505b6129d56129cd8561288d565b830182612974565b50505b505050565b600082821c905092915050565b60006129fb600019846008026129dd565b1980831691505092915050565b6000612a1483836129ea565b9150826002028217905092915050565b612a2d82611d02565b67ffffffffffffffff811115612a4657612a45611fff565b5b612a50825461221c565b612a5b828285612997565b600060209050601f831160018114612a8e5760008415612a7c578287015190505b612a868582612a08565b865550612aee565b601f198416612a9c86612878565b60005b82811015612ac457848901518255600182019150602085019450602081019050612a9f565b86831015612ae15784890151612add601f8916826129ea565b8355505b6001600288020188555050505b505050505050565b6000612b0182611db4565b9150612b0c83611db4565b9250828203905081811115612b2457612b23612501565b5b92915050565b600081519050919050565b600082825260208201905092915050565b6000612b5182612b2a565b612b5b8185612b35565b9350612b6b818560208601611d1e565b612b7481611d48565b840191505092915050565b6000608082019050612b946000830187611e49565b612ba16020830186611e49565b612bae6040830185611f32565b8181036060830152612bc08184612b46565b905095945050505050565b600081519050612bda81611c73565b92915050565b600060208284031215612bf657612bf5611c3d565b5b6000612c0484828501612bcb565b91505092915050565b7f4e487b7100000000000000000000000000000000000000000000000000000000600052601260045260246000fd5b7f4552433732313a206d696e7420746f20746865207a65726f2061646472657373600082015250565b6000612c72602083611d0d565b9150612c7d82612c3c565b602082019050919050565b60006020820190508181036000830152612ca181612c65565b9050919050565b7f4552433732313a20746f6b656e20616c7265616479206d696e74656400000000600082015250565b6000612cde601c83611d0d565b9150612ce982612ca8565b602082019050919050565b60006020820190508181036000830152612d0d81612cd1565b905091905056fea26469706673582212202c775c98bc8586b29fd724be9aa98cbd0a7642b12dbf97a07b7e38db41a87e0864736f6c63430008110033",
  "devdoc": {
    "kind": "dev",
    "methods": {
      "approve(address,uint256)": {
        "details": "See {IERC721-approve}."
      },
      "balanceOf(address)": {
        "details": "See {IERC721-balanceOf}."
      },
      "getApproved(uint256)": {
        "details": "See {IERC721-getApproved}."
      },
      "isApprovedForAll(address,address)": {
        "details": "See {IERC721-isApprovedForAll}."
      },
      "name()": {
        "details": "See {IERC721Metadata-name}."
      },
      "ownerOf(uint256)": {
        "details": "See {IERC721-ownerOf}."
      },
      "safeTransferFrom(address,address,uint256)": {
        "details": "See {IERC721-safeTransferFrom}."
      },
      "safeTransferFrom(address,address,uint256,bytes)": {
        "details": "See {IERC721-safeTransferFrom}."
      },
      "setApprovalForAll(address,bool)": {
        "details": "See {IERC721-setApprovalForAll}."
      },
      "supportsInterface(bytes4)": {
        "details": "See {IERC165-supportsInterface}."
      },
      "symbol()": {
        "details": "See {IERC721Metadata-symbol}."
      },
      "tokenURI(uint256)": {
        "details": "See {IERC721Metadata-tokenURI}."
      },
      "transferFrom(address,address,uint256)": {
        "details": "See {IERC721-transferFrom}."
      }
    },
    "version": 1
  },
  "userdoc": {
    "kind": "user",
    "methods": {},
    "version": 1
  },
  "storageLayout": {
    "storage": [
      {
        "astId": 25,
        "contract": "contracts/test/BasicNft.sol:BasicNft",
        "label": "_name",
        "offset": 0,
        "slot": "0",
        "type": "t_string_storage"
      },
      {
        "astId": 27,
        "contract": "contracts/test/BasicNft.sol:BasicNft",
        "label": "_symbol",
        "offset": 0,
        "slot": "1",
        "type": "t_string_storage"
      },
      {
        "astId": 31,
        "contract": "contracts/test/BasicNft.sol:BasicNft",
        "label": "_owners",
        "offset": 0,
        "slot": "2",
        "type": "t_mapping(t_uint256,t_address)"
      },
      {
        "astId": 35,
        "contract": "contracts/test/BasicNft.sol:BasicNft",
        "label": "_balances",
        "offset": 0,
        "slot": "3",
        "type": "t_mapping(t_address,t_uint256)"
      },
      {
        "astId": 39,
        "contract": "contracts/test/BasicNft.sol:BasicNft",
        "label": "_tokenApprovals",
        "offset": 0,
        "slot": "4",
        "type": "t_mapping(t_uint256,t_address)"
      },
      {
        "astId": 45,
        "contract": "contracts/test/BasicNft.sol:BasicNft",
        "label": "_operatorApprovals",
        "offset": 0,
        "slot": "5",
        "type": "t_mapping(t_address,t_mapping(t_address,t_bool))"
      },
      {
        "astId": 1091,
        "contract": "contracts/test/BasicNft.sol:BasicNft",
        "label": "_tokenURIs",
        "offset": 0,
        "slot": "6",
        "type": "t_mapping(t_uint256,t_string_storage)"
      },
      {
        "astId": 2717,
        "contract": "contracts/test/BasicNft.sol:BasicNft",
        "label": "s_tokenCounter",
        "offset": 0,
        "slot": "7",
        "type": "t_uint256"
      },
      {
        "astId": 2719,
        "contract": "contracts/test/BasicNft.sol:BasicNft",
        "label": "s_TokenUri",
        "offset": 0,
        "slot": "8",
        "type": "t_string_storage"
      },
      {
        "astId": 2721,
        "contract": "contracts/test/BasicNft.sol:BasicNft",
        "label": "s_initialized",
        "offset": 0,
        "slot": "9",
        "type": "t_bool"
      }
    ],
    "types": {
      "t_address": {
        "encoding": "inplace",
        "label": "address",
        "numberOfBytes": "20"
      },
      "t_bool": {
        "encoding": "inplace",
        "label": "bool",
        "numberOfBytes": "1"
      },
      "t_mapping(t_address,t_bool)": {
        "encoding": "mapping",
        "key": "t_address",
        "label": "mapping(address => bool)",
        "numberOfBytes": "32",
        "value": "t_bool"
      },
      "t_mapping(t_address,t_mapping(t_address,t_bool))": {
        "encoding": "mapping",
        "key": "t_address",
        "label": "mapping(address => mapping(address => bool))",
        "numberOfBytes": "32",
        "value": "t_mapping(t_address,t_bool)"
      },
      "t_mapping(t_address,t_uint256)": {
        "encoding": "mapping",
        "key": "t_address",
        "label": "mapping(address => uint256)",
        "numberOfBytes": "32",
        "value": "t_uint256"
      },
      "t_mapping(t_uint256,t_address)": {
        "encoding": "mapping",
        "key": "t_uint256",
        "label": "mapping(uint256 => address)",
        "numberOfBytes": "32",
        "value": "t_address"
      },
      "t_mapping(t_uint256,t_string_storage)": {
        "encoding": "mapping",
        "key": "t_uint256",
        "label": "mapping(uint256 => string)",
        "numberOfBytes": "32",
        "value": "t_string_storage"
      },
      "t_string_storage": {
        "encoding": "bytes",
        "label": "string",
        "numberOfBytes": "32"
      },
      "t_uint256": {
        "encoding": "inplace",
        "label": "uint256",
        "numberOfBytes": "32"
      }
    }
  }
}