{
  "address": "0x5FbDB2315678afecb367f032d93F642f64180aa3",
  "abi": [
    {
      "inputs": [],
      "stateMutability": "nonpayable",
      "type": "constructor"
    },
    {
      "anonymous": false,
      "inputs": [
        {
          "indexed": true,
          "internalType": "address",
          "name": "owner",
          "type": "address"
        },
        {
          "indexed": true,
          "internalType": "address",
          "name": "approved",
          "type": "address"
        },
        {
          "indexed": true,
          "internalType": "uint256",
          "name": "tokenId",
          "type": "uint256"
        }
      ],
      "name": "Approval",
      "type": "event"
    },
    {
      "anonymous": false,
      "inputs": [
        {
          "indexed": true,
          "internalType": "address",
          "name": "owner",
          "type": "address"
        },
        {
          "indexed": true,
          "internalType": "address",
          "name": "operator",
          "type": "address"
        },
        {
          "indexed": false,
          "internalType": "bool",
          "name": "approved",
          "type": "bool"
        }
      ],
      "name": "ApprovalForAll",
      "type": "event"
    },
    {
      "anonymous": false,
      "inputs": [
        {
          "indexed": true,
          "internalType": "uint256",
          "name": "tokenId",
          "type": "uint256"
        },
        {
          "indexed": true,
          "internalType": "address",
          "name": "ownerAddress",
          "type": "address"
        },
        {
          "indexed": false,
          "internalType": "address",
          "name": "propertyAddress",
          "type": "address"
        }
      ],
      "name": "PropertyMinted",
      "type": "event"
    },
    {
      "anonymous": false,
      "inputs": [
        {
          "indexed": true,
          "internalType": "address",
          "name": "from",
          "type": "address"
        },
        {
          "indexed": true,
          "internalType": "address",
          "name": "to",
          "type": "address"
        },
        {
          "indexed": true,
          "internalType": "uint256",
          "name": "tokenId",
          "type": "uint256"
        }
      ],
      "name": "Transfer",
      "type": "event"
    },
    {
      "inputs": [
        {
          "internalType": "address",
          "name": "to",
          "type": "address"
        },
        {
          "internalType": "uint256",
          "name": "tokenId",
          "type": "uint256"
        }
      ],
      "name": "approve",
      "outputs": [],
      "stateMutability": "nonpayable",
      "type": "function"
    },
    {
      "inputs": [
        {
          "internalType": "address",
          "name": "owner",
          "type": "address"
        }
      ],
      "name": "balanceOf",
      "outputs": [
        {
          "internalType": "uint256",
          "name": "",
          "type": "uint256"
        }
      ],
      "stateMutability": "view",
      "type": "function"
    },
    {
      "inputs": [
        {
          "internalType": "uint256",
          "name": "tokenId",
          "type": "uint256"
        }
      ],
      "name": "getApproved",
      "outputs": [
        {
          "internalType": "address",
          "name": "",
          "type": "address"
        }
      ],
      "stateMutability": "view",
      "type": "function"
    },
    {
      "inputs": [],
      "name": "getTokenCounter",
      "outputs": [
        {
          "internalType": "uint256",
          "name": "",
          "type": "uint256"
        }
      ],
      "stateMutability": "view",
      "type": "function"
    },
    {
      "inputs": [
        {
          "internalType": "uint256",
          "name": "tokenId",
          "type": "uint256"
        }
      ],
      "name": "getTokenUri",
      "outputs": [
        {
          "internalType": "string",
          "name": "",
          "type": "string"
        }
      ],
      "stateMutability": "view",
      "type": "function"
    },
    {
      "inputs": [
        {
          "internalType": "address",
          "name": "owner",
          "type": "address"
        },
        {
          "internalType": "address",
          "name": "operator",
          "type": "address"
        }
      ],
      "name": "isApprovedForAll",
      "outputs": [
        {
          "internalType": "bool",
          "name": "",
          "type": "bool"
        }
      ],
      "stateMutability": "view",
      "type": "function"
    },
    {
      "inputs": [
        {
          "internalType": "string",
          "name": "tokenUri",
          "type": "string"
        }
      ],
      "name": "mintNft",
      "outputs": [],
      "stateMutability": "nonpayable",
      "type": "function"
    },
    {
      "inputs": [],
      "name": "name",
      "outputs": [
        {
          "internalType": "string",
          "name": "",
          "type": "string"
        }
      ],
      "stateMutability": "view",
      "type": "function"
    },
    {
      "inputs": [
        {
          "internalType": "uint256",
          "name": "tokenId",
          "type": "uint256"
        }
      ],
      "name": "ownerOf",
      "outputs": [
        {
          "internalType": "address",
          "name": "",
          "type": "address"
        }
      ],
      "stateMutability": "view",
      "type": "function"
    },
    {
      "inputs": [
        {
          "internalType": "address",
          "name": "from",
          "type": "address"
        },
        {
          "internalType": "address",
          "name": "to",
          "type": "address"
        },
        {
          "internalType": "uint256",
          "name": "tokenId",
          "type": "uint256"
        }
      ],
      "name": "safeTransferFrom",
      "outputs": [],
      "stateMutability": "nonpayable",
      "type": "function"
    },
    {
      "inputs": [
        {
          "internalType": "address",
          "name": "from",
          "type": "address"
        },
        {
          "internalType": "address",
          "name": "to",
          "type": "address"
        },
        {
          "internalType": "uint256",
          "name": "tokenId",
          "type": "uint256"
        },
        {
          "internalType": "bytes",
          "name": "data",
          "type": "bytes"
        }
      ],
      "name": "safeTransferFrom",
      "outputs": [],
      "stateMutability": "nonpayable",
      "type": "function"
    },
    {
      "inputs": [
        {
          "internalType": "address",
          "name": "operator",
          "type": "address"
        },
        {
          "internalType": "bool",
          "name": "approved",
          "type": "bool"
        }
      ],
      "name": "setApprovalForAll",
      "outputs": [],
      "stateMutability": "nonpayable",
      "type": "function"
    },
    {
      "inputs": [
        {
          "internalType": "bytes4",
          "name": "interfaceId",
          "type": "bytes4"
        }
      ],
      "name": "supportsInterface",
      "outputs": [
        {
          "internalType": "bool",
          "name": "",
          "type": "bool"
        }
      ],
      "stateMutability": "view",
      "type": "function"
    },
    {
      "inputs": [],
      "name": "symbol",
      "outputs": [
        {
          "internalType": "string",
          "name": "",
          "type": "string"
        }
      ],
      "stateMutability": "view",
      "type": "function"
    },
    {
      "inputs": [
        {
          "internalType": "uint256",
          "name": "tokenId",
          "type": "uint256"
        }
      ],
      "name": "tokenURI",
      "outputs": [
        {
          "internalType": "string",
          "name": "",
          "type": "string"
        }
      ],
      "stateMutability": "view",
      "type": "function"
    },
    {
      "inputs": [
        {
          "internalType": "address",
          "name": "from",
          "type": "address"
        },
        {
          "internalType": "address",
          "name": "to",
          "type": "address"
        },
        {
          "internalType": "uint256",
          "name": "tokenId",
          "type": "uint256"
        }
      ],
      "name": "transferFrom",
      "outputs": [],
      "stateMutability": "nonpayable",
      "type": "function"
    }
  ],
  "transactionHash": "0x8a49ea676ad520b87f7875e3c795e7f11c5ec487cd19863c8547cc14170cbb1f",
  "args": [],
  "numDeployments": 1,
  "solcInputHash": "e794728ca48a39b80a290d1d505773ad",
  "bytecode": "0x60806040523480156200001157600080fd5b506040518060400160405280601081526020017f5472616e7366657250726f7065727479000000000000000000000000000000008152506040518060400160405280600381526020017f4f5950000000000000000000000000000000000000000000000000000000000081525081600090816200008f91906200032c565b508060019081620000a191906200032c565b505050600060078190555062000413565b600081519050919050565b7f4e487b7100000000000000000000000000000000000000000000000000000000600052604160045260246000fd5b7f4e487b7100000000000000000000000000000000000000000000000000000000600052602260045260246000fd5b600060028204905060018216806200013457607f821691505b6020821081036200014a5762000149620000ec565b5b50919050565b60008190508160005260206000209050919050565b60006020601f8301049050919050565b600082821b905092915050565b600060088302620001b47fffffffffffffffffffffffffffffffffffffffffffffffffffffffffffffffff8262000175565b620001c0868362000175565b95508019841693508086168417925050509392505050565b6000819050919050565b6000819050919050565b60006200020d620002076200020184620001d8565b620001e2565b620001d8565b9050919050565b6000819050919050565b6200022983620001ec565b62000241620002388262000214565b84845462000182565b825550505050565b600090565b6200025862000249565b620002658184846200021e565b505050565b5b818110156200028d57620002816000826200024e565b6001810190506200026b565b5050565b601f821115620002dc57620002a68162000150565b620002b18462000165565b81016020851015620002c1578190505b620002d9620002d08562000165565b8301826200026a565b50505b505050565b600082821c905092915050565b60006200030160001984600802620002e1565b1980831691505092915050565b60006200031c8383620002ee565b9150826002028217905092915050565b6200033782620000b2565b67ffffffffffffffff811115620003535762000352620000bd565b5b6200035f82546200011b565b6200036c82828562000291565b600060209050601f831160018114620003a457600084156200038f578287015190505b6200039b85826200030e565b8655506200040b565b601f198416620003b48662000150565b60005b82811015620003de57848901518255600182019150602085019450602081019050620003b7565b86831015620003fe5784890151620003fa601f891682620002ee565b8355505b6001600288020188555050505b505050505050565b612e8b80620004236000396000f3fe608060405234801561001057600080fd5b50600436106101005760003560e01c806370a0823111610097578063b88d4fde11610066578063b88d4fde146102bf578063c87b56dd146102db578063da86f4a91461030b578063e985e9c51461032757610100565b806370a08231146102255780638ad913451461025557806395d89b4114610285578063a22cb465146102a357610100565b806323b872dd116100d357806323b872dd1461019f57806342842e0e146101bb5780636352211e146101d75780636e02007d1461020757610100565b806301ffc9a71461010557806306fdde0314610135578063081812fc14610153578063095ea7b314610183575b600080fd5b61011f600480360381019061011a9190611c64565b610357565b60405161012c9190611cac565b60405180910390f35b61013d610439565b60405161014a9190611d57565b60405180910390f35b61016d60048036038101906101689190611daf565b6104cb565b60405161017a9190611e1d565b60405180910390f35b61019d60048036038101906101989190611e64565b610511565b005b6101b960048036038101906101b49190611ea4565b610628565b005b6101d560048036038101906101d09190611ea4565b610688565b005b6101f160048036038101906101ec9190611daf565b6106a8565b6040516101fe9190611e1d565b60405180910390f35b61020f61072e565b60405161021c9190611f06565b60405180910390f35b61023f600480360381019061023a9190611f21565b610738565b60405161024c9190611f06565b60405180910390f35b61026f600480360381019061026a9190611daf565b6107ef565b60405161027c9190611d57565b60405180910390f35b61028d6108dc565b60405161029a9190611d57565b60405180910390f35b6102bd60048036038101906102b89190611f7a565b61096e565b005b6102d960048036038101906102d491906120ef565b610984565b005b6102f560048036038101906102f09190611daf565b6109e6565b6040516103029190611d57565b60405180910390f35b61032560048036038101906103209190612213565b610af8565b005b610341600480360381019061033c919061225c565b610ba1565b60405161034e9190611cac565b60405180910390f35b60007f80ac58cd000000000000000000000000000000000000000000000000000000007bffffffffffffffffffffffffffffffffffffffffffffffffffffffff1916827bffffffffffffffffffffffffffffffffffffffffffffffffffffffff1916148061042257507f5b5e139f000000000000000000000000000000000000000000000000000000007bffffffffffffffffffffffffffffffffffffffffffffffffffffffff1916827bffffffffffffffffffffffffffffffffffffffffffffffffffffffff1916145b80610432575061043182610c35565b5b9050919050565b606060008054610448906122cb565b80601f0160208091040260200160405190810160405280929190818152602001828054610474906122cb565b80156104c15780601f10610496576101008083540402835291602001916104c1565b820191906000526020600020905b8154815290600101906020018083116104a457829003601f168201915b5050505050905090565b60006104d682610c9f565b6004600083815260200190815260200160002060009054906101000a900473ffffffffffffffffffffffffffffffffffffffff169050919050565b600061051c826106a8565b90508073ffffffffffffffffffffffffffffffffffffffff168373ffffffffffffffffffffffffffffffffffffffff160361058c576040517f08c379a00000000000000000000000000000000000000000000000000000000081526004016105839061236e565b60405180910390fd5b8073ffffffffffffffffffffffffffffffffffffffff166105ab610cea565b73ffffffffffffffffffffffffffffffffffffffff1614806105da57506105d9816105d4610cea565b610ba1565b5b610619576040517f08c379a000000000000000000000000000000000000000000000000000000000815260040161061090612400565b60405180910390fd5b6106238383610cf2565b505050565b610639610633610cea565b82610dab565b610678576040517f08c379a000000000000000000000000000000000000000000000000000000000815260040161066f90612492565b60405180910390fd5b610683838383610e40565b505050565b6106a383838360405180602001604052806000815250610984565b505050565b6000806106b483611139565b9050600073ffffffffffffffffffffffffffffffffffffffff168173ffffffffffffffffffffffffffffffffffffffff1603610725576040517f08c379a000000000000000000000000000000000000000000000000000000000815260040161071c906124fe565b60405180910390fd5b80915050919050565b6000600754905090565b60008073ffffffffffffffffffffffffffffffffffffffff168273ffffffffffffffffffffffffffffffffffffffff16036107a8576040517f08c379a000000000000000000000000000000000000000000000000000000000815260040161079f90612590565b60405180910390fd5b600360008373ffffffffffffffffffffffffffffffffffffffff1673ffffffffffffffffffffffffffffffffffffffff168152602001908152602001600020549050919050565b60606107fa82611176565b610839576040517f08c379a000000000000000000000000000000000000000000000000000000000815260040161083090612622565b60405180910390fd5b600860008381526020019081526020016000208054610857906122cb565b80601f0160208091040260200160405190810160405280929190818152602001828054610883906122cb565b80156108d05780601f106108a5576101008083540402835291602001916108d0565b820191906000526020600020905b8154815290600101906020018083116108b357829003601f168201915b50505050509050919050565b6060600180546108eb906122cb565b80601f0160208091040260200160405190810160405280929190818152602001828054610917906122cb565b80156109645780601f1061093957610100808354040283529160200191610964565b820191906000526020600020905b81548152906001019060200180831161094757829003601f168201915b5050505050905090565b610980610979610cea565b83836111b7565b5050565b61099561098f610cea565b83610dab565b6109d4576040517f08c379a00000000000000000000000000000000000000000000000000000000081526004016109cb90612492565b60405180910390fd5b6109e084848484611323565b50505050565b60606109f182610c9f565b6000600660008481526020019081526020016000208054610a11906122cb565b80601f0160208091040260200160405190810160405280929190818152602001828054610a3d906122cb565b8015610a8a5780601f10610a5f57610100808354040283529160200191610a8a565b820191906000526020600020905b815481529060010190602001808311610a6d57829003601f168201915b505050505090506000610a9b61137f565b90506000815103610ab0578192505050610af3565b600082511115610ae5578082604051602001610acd92919061267e565b60405160208183030381529060405292505050610af3565b610aee84611396565b925050505b919050565b600160076000828254610b0b91906126d1565b92505081905550806008600060075481526020019081526020016000209081610b3491906128b1565b50610b41336007546113fe565b610b4d6007548261141c565b3373ffffffffffffffffffffffffffffffffffffffff166007547f281e6bca59c0ded461563e53c1734e144345053c65610a7dd17645d71af74e3a30604051610b969190611e1d565b60405180910390a350565b6000600560008473ffffffffffffffffffffffffffffffffffffffff1673ffffffffffffffffffffffffffffffffffffffff16815260200190815260200160002060008373ffffffffffffffffffffffffffffffffffffffff1673ffffffffffffffffffffffffffffffffffffffff16815260200190815260200160002060009054906101000a900460ff16905092915050565b60007f01ffc9a7000000000000000000000000000000000000000000000000000000007bffffffffffffffffffffffffffffffffffffffffffffffffffffffff1916827bffffffffffffffffffffffffffffffffffffffffffffffffffffffff1916149050919050565b610ca881611176565b610ce7576040517f08c379a0000000000000000000000000000000000000000000000000000000008152600401610cde906124fe565b60405180910390fd5b50565b600033905090565b816004600083815260200190815260200160002060006101000a81548173ffffffffffffffffffffffffffffffffffffffff021916908373ffffffffffffffffffffffffffffffffffffffff160217905550808273ffffffffffffffffffffffffffffffffffffffff16610d65836106a8565b73ffffffffffffffffffffffffffffffffffffffff167f8c5be1e5ebec7d5bd14f71427d1e84f3dd0314c0f7b2291e5b200ac8c7c3b92560405160405180910390a45050565b600080610db7836106a8565b90508073ffffffffffffffffffffffffffffffffffffffff168473ffffffffffffffffffffffffffffffffffffffff161480610df95750610df88185610ba1565b5b80610e3757508373ffffffffffffffffffffffffffffffffffffffff16610e1f846104cb565b73ffffffffffffffffffffffffffffffffffffffff16145b91505092915050565b8273ffffffffffffffffffffffffffffffffffffffff16610e60826106a8565b73ffffffffffffffffffffffffffffffffffffffff1614610eb6576040517f08c379a0000000000000000000000000000000000000000000000000000000008152600401610ead906129f5565b60405180910390fd5b600073ffffffffffffffffffffffffffffffffffffffff168273ffffffffffffffffffffffffffffffffffffffff1603610f25576040517f08c379a0000000000000000000000000000000000000000000000000000000008152600401610f1c90612a87565b60405180910390fd5b610f328383836001611489565b8273ffffffffffffffffffffffffffffffffffffffff16610f52826106a8565b73ffffffffffffffffffffffffffffffffffffffff1614610fa8576040517f08c379a0000000000000000000000000000000000000000000000000000000008152600401610f9f906129f5565b60405180910390fd5b6004600082815260200190815260200160002060006101000a81549073ffffffffffffffffffffffffffffffffffffffff02191690556001600360008573ffffffffffffffffffffffffffffffffffffffff1673ffffffffffffffffffffffffffffffffffffffff168152602001908152602001600020600082825403925050819055506001600360008473ffffffffffffffffffffffffffffffffffffffff1673ffffffffffffffffffffffffffffffffffffffff16815260200190815260200160002060008282540192505081905550816002600083815260200190815260200160002060006101000a81548173ffffffffffffffffffffffffffffffffffffffff021916908373ffffffffffffffffffffffffffffffffffffffff160217905550808273ffffffffffffffffffffffffffffffffffffffff168473ffffffffffffffffffffffffffffffffffffffff167fddf252ad1be2c89b69c2b068fc378daa952ba7f163c4a11628f55a4df523b3ef60405160405180910390a461113483838360016115af565b505050565b60006002600083815260200190815260200160002060009054906101000a900473ffffffffffffffffffffffffffffffffffffffff169050919050565b60008073ffffffffffffffffffffffffffffffffffffffff1661119883611139565b73ffffffffffffffffffffffffffffffffffffffff1614159050919050565b8173ffffffffffffffffffffffffffffffffffffffff168373ffffffffffffffffffffffffffffffffffffffff1603611225576040517f08c379a000000000000000000000000000000000000000000000000000000000815260040161121c90612af3565b60405180910390fd5b80600560008573ffffffffffffffffffffffffffffffffffffffff1673ffffffffffffffffffffffffffffffffffffffff16815260200190815260200160002060008473ffffffffffffffffffffffffffffffffffffffff1673ffffffffffffffffffffffffffffffffffffffff16815260200190815260200160002060006101000a81548160ff0219169083151502179055508173ffffffffffffffffffffffffffffffffffffffff168373ffffffffffffffffffffffffffffffffffffffff167f17307eab39ab6107e8899845ad3d59bd9653f200f220920489ca2b5937696c31836040516113169190611cac565b60405180910390a3505050565b61132e848484610e40565b61133a848484846115b5565b611379576040517f08c379a000000000000000000000000000000000000000000000000000000000815260040161137090612b85565b60405180910390fd5b50505050565b606060405180602001604052806000815250905090565b60606113a182610c9f565b60006113ab61137f565b905060008151116113cb57604051806020016040528060008152506113f6565b806113d58461173c565b6040516020016113e692919061267e565b6040516020818303038152906040525b915050919050565b61141882826040518060200160405280600081525061180a565b5050565b61142582611176565b611464576040517f08c379a000000000000000000000000000000000000000000000000000000000815260040161145b90612c17565b60405180910390fd5b8060066000848152602001908152602001600020908161148491906128b1565b505050565b60018111156115a957600073ffffffffffffffffffffffffffffffffffffffff168473ffffffffffffffffffffffffffffffffffffffff161461151d5780600360008673ffffffffffffffffffffffffffffffffffffffff1673ffffffffffffffffffffffffffffffffffffffff16815260200190815260200160002060008282546115159190612c37565b925050819055505b600073ffffffffffffffffffffffffffffffffffffffff168373ffffffffffffffffffffffffffffffffffffffff16146115a85780600360008573ffffffffffffffffffffffffffffffffffffffff1673ffffffffffffffffffffffffffffffffffffffff16815260200190815260200160002060008282546115a091906126d1565b925050819055505b5b50505050565b50505050565b60006115d68473ffffffffffffffffffffffffffffffffffffffff16611865565b1561172f578373ffffffffffffffffffffffffffffffffffffffff1663150b7a026115ff610cea565b8786866040518563ffffffff1660e01b81526004016116219493929190612cc0565b6020604051808303816000875af192505050801561165d57506040513d601f19601f8201168201806040525081019061165a9190612d21565b60015b6116df573d806000811461168d576040519150601f19603f3d011682016040523d82523d6000602084013e611692565b606091505b5060008151036116d7576040517f08c379a00000000000000000000000000000000000000000000000000000000081526004016116ce90612b85565b60405180910390fd5b805181602001fd5b63150b7a0260e01b7bffffffffffffffffffffffffffffffffffffffffffffffffffffffff1916817bffffffffffffffffffffffffffffffffffffffffffffffffffffffff191614915050611734565b600190505b949350505050565b60606000600161174b84611888565b01905060008167ffffffffffffffff81111561176a57611769611fc4565b5b6040519080825280601f01601f19166020018201604052801561179c5781602001600182028036833780820191505090505b509050600082602001820190505b6001156117ff578080600190039150507f3031323334353637383961626364656600000000000000000000000000000000600a86061a8153600a85816117f3576117f2612d4e565b5b049450600085036117aa575b819350505050919050565b61181483836119db565b61182160008484846115b5565b611860576040517f08c379a000000000000000000000000000000000000000000000000000000000815260040161185790612b85565b60405180910390fd5b505050565b6000808273ffffffffffffffffffffffffffffffffffffffff163b119050919050565b600080600090507a184f03e93ff9f4daa797ed6e38ed64bf6a1f01000000000000000083106118e6577a184f03e93ff9f4daa797ed6e38ed64bf6a1f01000000000000000083816118dc576118db612d4e565b5b0492506040810190505b6d04ee2d6d415b85acef81000000008310611923576d04ee2d6d415b85acef8100000000838161191957611918612d4e565b5b0492506020810190505b662386f26fc10000831061195257662386f26fc10000838161194857611947612d4e565b5b0492506010810190505b6305f5e100831061197b576305f5e100838161197157611970612d4e565b5b0492506008810190505b61271083106119a057612710838161199657611995612d4e565b5b0492506004810190505b606483106119c357606483816119b9576119b8612d4e565b5b0492506002810190505b600a83106119d2576001810190505b80915050919050565b600073ffffffffffffffffffffffffffffffffffffffff168273ffffffffffffffffffffffffffffffffffffffff1603611a4a576040517f08c379a0000000000000000000000000000000000000000000000000000000008152600401611a4190612dc9565b60405180910390fd5b611a5381611176565b15611a93576040517f08c379a0000000000000000000000000000000000000000000000000000000008152600401611a8a90612e35565b60405180910390fd5b611aa1600083836001611489565b611aaa81611176565b15611aea576040517f08c379a0000000000000000000000000000000000000000000000000000000008152600401611ae190612e35565b60405180910390fd5b6001600360008473ffffffffffffffffffffffffffffffffffffffff1673ffffffffffffffffffffffffffffffffffffffff16815260200190815260200160002060008282540192505081905550816002600083815260200190815260200160002060006101000a81548173ffffffffffffffffffffffffffffffffffffffff021916908373ffffffffffffffffffffffffffffffffffffffff160217905550808273ffffffffffffffffffffffffffffffffffffffff16600073ffffffffffffffffffffffffffffffffffffffff167fddf252ad1be2c89b69c2b068fc378daa952ba7f163c4a11628f55a4df523b3ef60405160405180910390a4611bf46000838360016115af565b5050565b6000604051905090565b600080fd5b600080fd5b60007fffffffff0000000000000000000000000000000000000000000000000000000082169050919050565b611c4181611c0c565b8114611c4c57600080fd5b50565b600081359050611c5e81611c38565b92915050565b600060208284031215611c7a57611c79611c02565b5b6000611c8884828501611c4f565b91505092915050565b60008115159050919050565b611ca681611c91565b82525050565b6000602082019050611cc16000830184611c9d565b92915050565b600081519050919050565b600082825260208201905092915050565b60005b83811015611d01578082015181840152602081019050611ce6565b60008484015250505050565b6000601f19601f8301169050919050565b6000611d2982611cc7565b611d338185611cd2565b9350611d43818560208601611ce3565b611d4c81611d0d565b840191505092915050565b60006020820190508181036000830152611d718184611d1e565b905092915050565b6000819050919050565b611d8c81611d79565b8114611d9757600080fd5b50565b600081359050611da981611d83565b92915050565b600060208284031215611dc557611dc4611c02565b5b6000611dd384828501611d9a565b91505092915050565b600073ffffffffffffffffffffffffffffffffffffffff82169050919050565b6000611e0782611ddc565b9050919050565b611e1781611dfc565b82525050565b6000602082019050611e326000830184611e0e565b92915050565b611e4181611dfc565b8114611e4c57600080fd5b50565b600081359050611e5e81611e38565b92915050565b60008060408385031215611e7b57611e7a611c02565b5b6000611e8985828601611e4f565b9250506020611e9a85828601611d9a565b9150509250929050565b600080600060608486031215611ebd57611ebc611c02565b5b6000611ecb86828701611e4f565b9350506020611edc86828701611e4f565b9250506040611eed86828701611d9a565b9150509250925092565b611f0081611d79565b82525050565b6000602082019050611f1b6000830184611ef7565b92915050565b600060208284031215611f3757611f36611c02565b5b6000611f4584828501611e4f565b91505092915050565b611f5781611c91565b8114611f6257600080fd5b50565b600081359050611f7481611f4e565b92915050565b60008060408385031215611f9157611f90611c02565b5b6000611f9f85828601611e4f565b9250506020611fb085828601611f65565b9150509250929050565b600080fd5b600080fd5b7f4e487b7100000000000000000000000000000000000000000000000000000000600052604160045260246000fd5b611ffc82611d0d565b810181811067ffffffffffffffff8211171561201b5761201a611fc4565b5b80604052505050565b600061202e611bf8565b905061203a8282611ff3565b919050565b600067ffffffffffffffff82111561205a57612059611fc4565b5b61206382611d0d565b9050602081019050919050565b82818337600083830152505050565b600061209261208d8461203f565b612024565b9050828152602081018484840111156120ae576120ad611fbf565b5b6120b9848285612070565b509392505050565b600082601f8301126120d6576120d5611fba565b5b81356120e684826020860161207f565b91505092915050565b6000806000806080858703121561210957612108611c02565b5b600061211787828801611e4f565b945050602061212887828801611e4f565b935050604061213987828801611d9a565b925050606085013567ffffffffffffffff81111561215a57612159611c07565b5b612166878288016120c1565b91505092959194509250565b600067ffffffffffffffff82111561218d5761218c611fc4565b5b61219682611d0d565b9050602081019050919050565b60006121b66121b184612172565b612024565b9050828152602081018484840111156121d2576121d1611fbf565b5b6121dd848285612070565b509392505050565b600082601f8301126121fa576121f9611fba565b5b813561220a8482602086016121a3565b91505092915050565b60006020828403121561222957612228611c02565b5b600082013567ffffffffffffffff81111561224757612246611c07565b5b612253848285016121e5565b91505092915050565b6000806040838503121561227357612272611c02565b5b600061228185828601611e4f565b925050602061229285828601611e4f565b9150509250929050565b7f4e487b7100000000000000000000000000000000000000000000000000000000600052602260045260246000fd5b600060028204905060018216806122e357607f821691505b6020821081036122f6576122f561229c565b5b50919050565b7f4552433732313a20617070726f76616c20746f2063757272656e74206f776e6560008201527f7200000000000000000000000000000000000000000000000000000000000000602082015250565b6000612358602183611cd2565b9150612363826122fc565b604082019050919050565b600060208201905081810360008301526123878161234b565b9050919050565b7f4552433732313a20617070726f76652063616c6c6572206973206e6f7420746f60008201527f6b656e206f776e6572206f7220617070726f76656420666f7220616c6c000000602082015250565b60006123ea603d83611cd2565b91506123f58261238e565b604082019050919050565b60006020820190508181036000830152612419816123dd565b9050919050565b7f4552433732313a2063616c6c6572206973206e6f7420746f6b656e206f776e6560008201527f72206f7220617070726f76656400000000000000000000000000000000000000602082015250565b600061247c602d83611cd2565b915061248782612420565b604082019050919050565b600060208201905081810360008301526124ab8161246f565b9050919050565b7f4552433732313a20696e76616c696420746f6b656e2049440000000000000000600082015250565b60006124e8601883611cd2565b91506124f3826124b2565b602082019050919050565b60006020820190508181036000830152612517816124db565b9050919050565b7f4552433732313a2061646472657373207a65726f206973206e6f74206120766160008201527f6c6964206f776e65720000000000000000000000000000000000000000000000602082015250565b600061257a602983611cd2565b91506125858261251e565b604082019050919050565b600060208201905081810360008301526125a98161256d565b9050919050565b7f4552433732314d657461646174613a20546f6b656e20494420697320646f657360008201527f206e6f7420657869737400000000000000000000000000000000000000000000602082015250565b600061260c602a83611cd2565b9150612617826125b0565b604082019050919050565b6000602082019050818103600083015261263b816125ff565b9050919050565b600081905092915050565b600061265882611cc7565b6126628185612642565b9350612672818560208601611ce3565b80840191505092915050565b600061268a828561264d565b9150612696828461264d565b91508190509392505050565b7f4e487b7100000000000000000000000000000000000000000000000000000000600052601160045260246000fd5b60006126dc82611d79565b91506126e783611d79565b92508282019050808211156126ff576126fe6126a2565b5b92915050565b60008190508160005260206000209050919050565b60006020601f8301049050919050565b600082821b905092915050565b6000600883026127677fffffffffffffffffffffffffffffffffffffffffffffffffffffffffffffffff8261272a565b612771868361272a565b95508019841693508086168417925050509392505050565b6000819050919050565b60006127ae6127a96127a484611d79565b612789565b611d79565b9050919050565b6000819050919050565b6127c883612793565b6127dc6127d4826127b5565b848454612737565b825550505050565b600090565b6127f16127e4565b6127fc8184846127bf565b505050565b5b81811015612820576128156000826127e9565b600181019050612802565b5050565b601f8211156128655761283681612705565b61283f8461271a565b8101602085101561284e578190505b61286261285a8561271a565b830182612801565b50505b505050565b600082821c905092915050565b60006128886000198460080261286a565b1980831691505092915050565b60006128a18383612877565b9150826002028217905092915050565b6128ba82611cc7565b67ffffffffffffffff8111156128d3576128d2611fc4565b5b6128dd82546122cb565b6128e8828285612824565b600060209050601f83116001811461291b5760008415612909578287015190505b6129138582612895565b86555061297b565b601f19841661292986612705565b60005b828110156129515784890151825560018201915060208501945060208101905061292c565b8683101561296e578489015161296a601f891682612877565b8355505b6001600288020188555050505b505050505050565b7f4552433732313a207472616e736665722066726f6d20696e636f72726563742060008201527f6f776e6572000000000000000000000000000000000000000000000000000000602082015250565b60006129df602583611cd2565b91506129ea82612983565b604082019050919050565b60006020820190508181036000830152612a0e816129d2565b9050919050565b7f4552433732313a207472616e7366657220746f20746865207a65726f2061646460008201527f7265737300000000000000000000000000000000000000000000000000000000602082015250565b6000612a71602483611cd2565b9150612a7c82612a15565b604082019050919050565b60006020820190508181036000830152612aa081612a64565b9050919050565b7f4552433732313a20617070726f766520746f2063616c6c657200000000000000600082015250565b6000612add601983611cd2565b9150612ae882612aa7565b602082019050919050565b60006020820190508181036000830152612b0c81612ad0565b9050919050565b7f4552433732313a207472616e7366657220746f206e6f6e20455243373231526560008201527f63656976657220696d706c656d656e7465720000000000000000000000000000602082015250565b6000612b6f603283611cd2565b9150612b7a82612b13565b604082019050919050565b60006020820190508181036000830152612b9e81612b62565b9050919050565b7f45524337323155524953746f726167653a2055524920736574206f66206e6f6e60008201527f6578697374656e7420746f6b656e000000000000000000000000000000000000602082015250565b6000612c01602e83611cd2565b9150612c0c82612ba5565b604082019050919050565b60006020820190508181036000830152612c3081612bf4565b9050919050565b6000612c4282611d79565b9150612c4d83611d79565b9250828203905081811115612c6557612c646126a2565b5b92915050565b600081519050919050565b600082825260208201905092915050565b6000612c9282612c6b565b612c9c8185612c76565b9350612cac818560208601611ce3565b612cb581611d0d565b840191505092915050565b6000608082019050612cd56000830187611e0e565b612ce26020830186611e0e565b612cef6040830185611ef7565b8181036060830152612d018184612c87565b905095945050505050565b600081519050612d1b81611c38565b92915050565b600060208284031215612d3757612d36611c02565b5b6000612d4584828501612d0c565b91505092915050565b7f4e487b7100000000000000000000000000000000000000000000000000000000600052601260045260246000fd5b7f4552433732313a206d696e7420746f20746865207a65726f2061646472657373600082015250565b6000612db3602083611cd2565b9150612dbe82612d7d565b602082019050919050565b60006020820190508181036000830152612de281612da6565b9050919050565b7f4552433732313a20746f6b656e20616c7265616479206d696e74656400000000600082015250565b6000612e1f601c83611cd2565b9150612e2a82612de9565b602082019050919050565b60006020820190508181036000830152612e4e81612e12565b905091905056fea264697066735822122035e285dad0a1982d989407dadb3c66101f6b6944034cc1c5f0b0c9423b18078d64736f6c63430008110033",
  "devdoc": {
    "kind": "dev",
    "methods": {
      "approve(address,uint256)": {
        "details": "See {IERC721-approve}."
      },
      "balanceOf(address)": {
        "details": "See {IERC721-balanceOf}."
      },
      "getApproved(uint256)": {
        "details": "See {IERC721-getApproved}."
      },
      "isApprovedForAll(address,address)": {
        "details": "See {IERC721-isApprovedForAll}."
      },
      "name()": {
        "details": "See {IERC721Metadata-name}."
      },
      "ownerOf(uint256)": {
        "details": "See {IERC721-ownerOf}."
      },
      "safeTransferFrom(address,address,uint256)": {
        "details": "See {IERC721-safeTransferFrom}."
      },
      "safeTransferFrom(address,address,uint256,bytes)": {
        "details": "See {IERC721-safeTransferFrom}."
      },
      "setApprovalForAll(address,bool)": {
        "details": "See {IERC721-setApprovalForAll}."
      },
      "supportsInterface(bytes4)": {
        "details": "See {IERC165-supportsInterface}."
      },
      "symbol()": {
        "details": "See {IERC721Metadata-symbol}."
      },
      "tokenURI(uint256)": {
        "details": "See {IERC721Metadata-tokenURI}."
      },
      "transferFrom(address,address,uint256)": {
        "details": "See {IERC721-transferFrom}."
      }
    },
    "version": 1
  },
  "userdoc": {
    "kind": "user",
    "methods": {},
    "version": 1
  },
  "storageLayout": {
    "storage": [
      {
        "astId": 3127,
        "contract": "contracts/BasicNft.sol:BasicNft",
        "label": "_name",
        "offset": 0,
        "slot": "0",
        "type": "t_string_storage"
      },
      {
        "astId": 3129,
        "contract": "contracts/BasicNft.sol:BasicNft",
        "label": "_symbol",
        "offset": 0,
        "slot": "1",
        "type": "t_string_storage"
      },
      {
        "astId": 3133,
        "contract": "contracts/BasicNft.sol:BasicNft",
        "label": "_owners",
        "offset": 0,
        "slot": "2",
        "type": "t_mapping(t_uint256,t_address)"
      },
      {
        "astId": 3137,
        "contract": "contracts/BasicNft.sol:BasicNft",
        "label": "_balances",
        "offset": 0,
        "slot": "3",
        "type": "t_mapping(t_address,t_uint256)"
      },
      {
        "astId": 3141,
        "contract": "contracts/BasicNft.sol:BasicNft",
        "label": "_tokenApprovals",
        "offset": 0,
        "slot": "4",
        "type": "t_mapping(t_uint256,t_address)"
      },
      {
        "astId": 3147,
        "contract": "contracts/BasicNft.sol:BasicNft",
        "label": "_operatorApprovals",
        "offset": 0,
        "slot": "5",
        "type": "t_mapping(t_address,t_mapping(t_address,t_bool))"
      },
      {
        "astId": 2873,
        "contract": "contracts/BasicNft.sol:BasicNft",
        "label": "_tokenURIs",
        "offset": 0,
        "slot": "6",
        "type": "t_mapping(t_uint256,t_string_storage)"
      },
      {
        "astId": 2667,
        "contract": "contracts/BasicNft.sol:BasicNft",
        "label": "s_tokenCounter",
        "offset": 0,
        "slot": "7",
        "type": "t_uint256"
      },
      {
        "astId": 2671,
        "contract": "contracts/BasicNft.sol:BasicNft",
        "label": "tokenIdToUri",
        "offset": 0,
        "slot": "8",
        "type": "t_mapping(t_uint256,t_string_storage)"
      }
    ],
    "types": {
      "t_address": {
        "encoding": "inplace",
        "label": "address",
        "numberOfBytes": "20"
      },
      "t_bool": {
        "encoding": "inplace",
        "label": "bool",
        "numberOfBytes": "1"
      },
      "t_mapping(t_address,t_bool)": {
        "encoding": "mapping",
        "key": "t_address",
        "label": "mapping(address => bool)",
        "numberOfBytes": "32",
        "value": "t_bool"
      },
      "t_mapping(t_address,t_mapping(t_address,t_bool))": {
        "encoding": "mapping",
        "key": "t_address",
        "label": "mapping(address => mapping(address => bool))",
        "numberOfBytes": "32",
        "value": "t_mapping(t_address,t_bool)"
      },
      "t_mapping(t_address,t_uint256)": {
        "encoding": "mapping",
        "key": "t_address",
        "label": "mapping(address => uint256)",
        "numberOfBytes": "32",
        "value": "t_uint256"
      },
      "t_mapping(t_uint256,t_address)": {
        "encoding": "mapping",
        "key": "t_uint256",
        "label": "mapping(uint256 => address)",
        "numberOfBytes": "32",
        "value": "t_address"
      },
      "t_mapping(t_uint256,t_string_storage)": {
        "encoding": "mapping",
        "key": "t_uint256",
        "label": "mapping(uint256 => string)",
        "numberOfBytes": "32",
        "value": "t_string_storage"
      },
      "t_string_storage": {
        "encoding": "bytes",
        "label": "string",
        "numberOfBytes": "32"
      },
      "t_uint256": {
        "encoding": "inplace",
        "label": "uint256",
        "numberOfBytes": "32"
      }
    }
  }
}