{
  "address": "0x5FbDB2315678afecb367f032d93F642f64180aa3",
  "abi": [
    {
      "inputs": [],
      "stateMutability": "nonpayable",
      "type": "constructor"
    },
    {
      "anonymous": false,
      "inputs": [
        {
          "indexed": true,
          "internalType": "address",
          "name": "owner",
          "type": "address"
        },
        {
          "indexed": true,
          "internalType": "address",
          "name": "approved",
          "type": "address"
        },
        {
          "indexed": true,
          "internalType": "uint256",
          "name": "tokenId",
          "type": "uint256"
        }
      ],
      "name": "Approval",
      "type": "event"
    },
    {
      "anonymous": false,
      "inputs": [
        {
          "indexed": true,
          "internalType": "address",
          "name": "owner",
          "type": "address"
        },
        {
          "indexed": true,
          "internalType": "address",
          "name": "operator",
          "type": "address"
        },
        {
          "indexed": false,
          "internalType": "bool",
          "name": "approved",
          "type": "bool"
        }
      ],
      "name": "ApprovalForAll",
      "type": "event"
    },
    {
      "anonymous": false,
      "inputs": [
        {
          "indexed": true,
          "internalType": "uint256",
          "name": "tokenId",
          "type": "uint256"
        },
        {
          "indexed": true,
          "internalType": "address",
          "name": "ownerAddress",
          "type": "address"
        },
        {
          "indexed": true,
          "internalType": "address",
          "name": "propertyAddress",
          "type": "address"
        }
      ],
      "name": "PropertyMinted",
      "type": "event"
    },
    {
      "anonymous": false,
      "inputs": [
        {
          "indexed": true,
          "internalType": "address",
          "name": "from",
          "type": "address"
        },
        {
          "indexed": true,
          "internalType": "address",
          "name": "to",
          "type": "address"
        },
        {
          "indexed": true,
          "internalType": "uint256",
          "name": "tokenId",
          "type": "uint256"
        }
      ],
      "name": "Transfer",
      "type": "event"
    },
    {
      "inputs": [
        {
          "internalType": "address",
          "name": "to",
          "type": "address"
        },
        {
          "internalType": "uint256",
          "name": "tokenId",
          "type": "uint256"
        }
      ],
      "name": "approve",
      "outputs": [],
      "stateMutability": "nonpayable",
      "type": "function"
    },
    {
      "inputs": [
        {
          "internalType": "address",
          "name": "owner",
          "type": "address"
        }
      ],
      "name": "balanceOf",
      "outputs": [
        {
          "internalType": "uint256",
          "name": "",
          "type": "uint256"
        }
      ],
      "stateMutability": "view",
      "type": "function"
    },
    {
      "inputs": [
        {
          "internalType": "uint256",
          "name": "tokenId",
          "type": "uint256"
        }
      ],
      "name": "getApproved",
      "outputs": [
        {
          "internalType": "address",
          "name": "",
          "type": "address"
        }
      ],
      "stateMutability": "view",
      "type": "function"
    },
    {
      "inputs": [],
      "name": "getInitialized",
      "outputs": [
        {
          "internalType": "bool",
          "name": "",
          "type": "bool"
        }
      ],
      "stateMutability": "view",
      "type": "function"
    },
    {
      "inputs": [],
      "name": "getTokenCounter",
      "outputs": [
        {
          "internalType": "uint256",
          "name": "",
          "type": "uint256"
        }
      ],
      "stateMutability": "view",
      "type": "function"
    },
    {
      "inputs": [],
      "name": "getTokenUri",
      "outputs": [
        {
          "internalType": "string",
          "name": "",
          "type": "string"
        }
      ],
      "stateMutability": "view",
      "type": "function"
    },
    {
      "inputs": [
        {
          "internalType": "address",
          "name": "owner",
          "type": "address"
        },
        {
          "internalType": "address",
          "name": "operator",
          "type": "address"
        }
      ],
      "name": "isApprovedForAll",
      "outputs": [
        {
          "internalType": "bool",
          "name": "",
          "type": "bool"
        }
      ],
      "stateMutability": "view",
      "type": "function"
    },
    {
      "inputs": [
        {
          "internalType": "string",
          "name": "tokenUri",
          "type": "string"
        }
      ],
      "name": "mintNft",
      "outputs": [],
      "stateMutability": "nonpayable",
      "type": "function"
    },
    {
      "inputs": [],
      "name": "name",
      "outputs": [
        {
          "internalType": "string",
          "name": "",
          "type": "string"
        }
      ],
      "stateMutability": "view",
      "type": "function"
    },
    {
      "inputs": [
        {
          "internalType": "uint256",
          "name": "tokenId",
          "type": "uint256"
        }
      ],
      "name": "ownerOf",
      "outputs": [
        {
          "internalType": "address",
          "name": "",
          "type": "address"
        }
      ],
      "stateMutability": "view",
      "type": "function"
    },
    {
      "inputs": [
        {
          "internalType": "address",
          "name": "from",
          "type": "address"
        },
        {
          "internalType": "address",
          "name": "to",
          "type": "address"
        },
        {
          "internalType": "uint256",
          "name": "tokenId",
          "type": "uint256"
        }
      ],
      "name": "safeTransferFrom",
      "outputs": [],
      "stateMutability": "nonpayable",
      "type": "function"
    },
    {
      "inputs": [
        {
          "internalType": "address",
          "name": "from",
          "type": "address"
        },
        {
          "internalType": "address",
          "name": "to",
          "type": "address"
        },
        {
          "internalType": "uint256",
          "name": "tokenId",
          "type": "uint256"
        },
        {
          "internalType": "bytes",
          "name": "data",
          "type": "bytes"
        }
      ],
      "name": "safeTransferFrom",
      "outputs": [],
      "stateMutability": "nonpayable",
      "type": "function"
    },
    {
      "inputs": [
        {
          "internalType": "address",
          "name": "operator",
          "type": "address"
        },
        {
          "internalType": "bool",
          "name": "approved",
          "type": "bool"
        }
      ],
      "name": "setApprovalForAll",
      "outputs": [],
      "stateMutability": "nonpayable",
      "type": "function"
    },
    {
      "inputs": [
        {
          "internalType": "bytes4",
          "name": "interfaceId",
          "type": "bytes4"
        }
      ],
      "name": "supportsInterface",
      "outputs": [
        {
          "internalType": "bool",
          "name": "",
          "type": "bool"
        }
      ],
      "stateMutability": "view",
      "type": "function"
    },
    {
      "inputs": [],
      "name": "symbol",
      "outputs": [
        {
          "internalType": "string",
          "name": "",
          "type": "string"
        }
      ],
      "stateMutability": "view",
      "type": "function"
    },
    {
      "inputs": [
        {
          "internalType": "uint256",
          "name": "tokenId",
          "type": "uint256"
        }
      ],
      "name": "tokenURI",
      "outputs": [
        {
          "internalType": "string",
          "name": "",
          "type": "string"
        }
      ],
      "stateMutability": "view",
      "type": "function"
    },
    {
      "inputs": [
        {
          "internalType": "address",
          "name": "from",
          "type": "address"
        },
        {
          "internalType": "address",
          "name": "to",
          "type": "address"
        },
        {
          "internalType": "uint256",
          "name": "tokenId",
          "type": "uint256"
        }
      ],
      "name": "transferFrom",
      "outputs": [],
      "stateMutability": "nonpayable",
      "type": "function"
    }
  ],
  "transactionHash": "0xce3aabc8abaa1a6285c95c0e745cd03300c00f8f8d75b08277595477f8ec5815",
  "args": [],
  "numDeployments": 1,
  "solcInputHash": "6154528f0fce3e5437978c654aa694d0",
  "bytecode": "0x60806040523480156200001157600080fd5b506040518060400160405280600f81526020017f4f776e596f757250726f706572747900000000000000000000000000000000008152506040518060400160405280600381526020017f4f5950000000000000000000000000000000000000000000000000000000000081525081600090816200008f91906200032c565b508060019081620000a191906200032c565b505050600060078190555062000413565b600081519050919050565b7f4e487b7100000000000000000000000000000000000000000000000000000000600052604160045260246000fd5b7f4e487b7100000000000000000000000000000000000000000000000000000000600052602260045260246000fd5b600060028204905060018216806200013457607f821691505b6020821081036200014a5762000149620000ec565b5b50919050565b60008190508160005260206000209050919050565b60006020601f8301049050919050565b600082821b905092915050565b600060088302620001b47fffffffffffffffffffffffffffffffffffffffffffffffffffffffffffffffff8262000175565b620001c0868362000175565b95508019841693508086168417925050509392505050565b6000819050919050565b6000819050919050565b60006200020d620002076200020184620001d8565b620001e2565b620001d8565b9050919050565b6000819050919050565b6200022983620001ec565b62000241620002388262000214565b84845462000182565b825550505050565b600090565b6200025862000249565b620002658184846200021e565b505050565b5b818110156200028d57620002816000826200024e565b6001810190506200026b565b5050565b601f821115620002dc57620002a68162000150565b620002b18462000165565b81016020851015620002c1578190505b620002d9620002d08562000165565b8301826200026a565b50505b505050565b600082821c905092915050565b60006200030160001984600802620002e1565b1980831691505092915050565b60006200031c8383620002ee565b9150826002028217905092915050565b6200033782620000b2565b67ffffffffffffffff811115620003535762000352620000bd565b5b6200035f82546200011b565b6200036c82828562000291565b600060209050601f831160018114620003a457600084156200038f578287015190505b6200039b85826200030e565b8655506200040b565b601f198416620003b48662000150565b60005b82811015620003de57848901518255600182019150602085019450602081019050620003b7565b86831015620003fe5784890151620003fa601f891682620002ee565b8355505b6001600288020188555050505b505050505050565b612dc580620004236000396000f3fe608060405234801561001057600080fd5b506004361061010b5760003560e01c806370a08231116100a2578063c395c8af11610071578063c395c8af146102b6578063c87b56dd146102d4578063da86f4a914610304578063e985e9c514610320578063ee89dab4146103505761010b565b806370a082311461023057806395d89b4114610260578063a22cb4651461027e578063b88d4fde1461029a5761010b565b806323b872dd116100de57806323b872dd146101aa57806342842e0e146101c65780636352211e146101e25780636e02007d146102125761010b565b806301ffc9a71461011057806306fdde0314610140578063081812fc1461015e578063095ea7b31461018e575b600080fd5b61012a60048036038101906101259190611c30565b61036e565b6040516101379190611c78565b60405180910390f35b610148610450565b6040516101559190611d23565b60405180910390f35b61017860048036038101906101739190611d7b565b6104e2565b6040516101859190611de9565b60405180910390f35b6101a860048036038101906101a39190611e30565b610528565b005b6101c460048036038101906101bf9190611e70565b61063f565b005b6101e060048036038101906101db9190611e70565b61069f565b005b6101fc60048036038101906101f79190611d7b565b6106bf565b6040516102099190611de9565b60405180910390f35b61021a610745565b6040516102279190611ed2565b60405180910390f35b61024a60048036038101906102459190611eed565b61074f565b6040516102579190611ed2565b60405180910390f35b610268610806565b6040516102759190611d23565b60405180910390f35b61029860048036038101906102939190611f46565b610898565b005b6102b460048036038101906102af91906120bb565b6108ae565b005b6102be610910565b6040516102cb9190611d23565b60405180910390f35b6102ee60048036038101906102e99190611d7b565b6109a2565b6040516102fb9190611d23565b60405180910390f35b61031e600480360381019061031991906121df565b610ab4565b005b61033a60048036038101906103359190612228565b610b56565b6040516103479190611c78565b60405180910390f35b610358610bea565b6040516103659190611c78565b60405180910390f35b60007f80ac58cd000000000000000000000000000000000000000000000000000000007bffffffffffffffffffffffffffffffffffffffffffffffffffffffff1916827bffffffffffffffffffffffffffffffffffffffffffffffffffffffff1916148061043957507f5b5e139f000000000000000000000000000000000000000000000000000000007bffffffffffffffffffffffffffffffffffffffffffffffffffffffff1916827bffffffffffffffffffffffffffffffffffffffffffffffffffffffff1916145b80610449575061044882610c01565b5b9050919050565b60606000805461045f90612297565b80601f016020809104026020016040519081016040528092919081815260200182805461048b90612297565b80156104d85780601f106104ad576101008083540402835291602001916104d8565b820191906000526020600020905b8154815290600101906020018083116104bb57829003601f168201915b5050505050905090565b60006104ed82610c6b565b6004600083815260200190815260200160002060009054906101000a900473ffffffffffffffffffffffffffffffffffffffff169050919050565b6000610533826106bf565b90508073ffffffffffffffffffffffffffffffffffffffff168373ffffffffffffffffffffffffffffffffffffffff16036105a3576040517f08c379a000000000000000000000000000000000000000000000000000000000815260040161059a9061233a565b60405180910390fd5b8073ffffffffffffffffffffffffffffffffffffffff166105c2610cb6565b73ffffffffffffffffffffffffffffffffffffffff1614806105f157506105f0816105eb610cb6565b610b56565b5b610630576040517f08c379a0000000000000000000000000000000000000000000000000000000008152600401610627906123cc565b60405180910390fd5b61063a8383610cbe565b505050565b61065061064a610cb6565b82610d77565b61068f576040517f08c379a00000000000000000000000000000000000000000000000000000000081526004016106869061245e565b60405180910390fd5b61069a838383610e0c565b505050565b6106ba838383604051806020016040528060008152506108ae565b505050565b6000806106cb83611105565b9050600073ffffffffffffffffffffffffffffffffffffffff168173ffffffffffffffffffffffffffffffffffffffff160361073c576040517f08c379a0000000000000000000000000000000000000000000000000000000008152600401610733906124ca565b60405180910390fd5b80915050919050565b6000600754905090565b60008073ffffffffffffffffffffffffffffffffffffffff168273ffffffffffffffffffffffffffffffffffffffff16036107bf576040517f08c379a00000000000000000000000000000000000000000000000000000000081526004016107b69061255c565b60405180910390fd5b600360008373ffffffffffffffffffffffffffffffffffffffff1673ffffffffffffffffffffffffffffffffffffffff168152602001908152602001600020549050919050565b60606001805461081590612297565b80601f016020809104026020016040519081016040528092919081815260200182805461084190612297565b801561088e5780601f106108635761010080835404028352916020019161088e565b820191906000526020600020905b81548152906001019060200180831161087157829003601f168201915b5050505050905090565b6108aa6108a3610cb6565b8383611142565b5050565b6108bf6108b9610cb6565b83610d77565b6108fe576040517f08c379a00000000000000000000000000000000000000000000000000000000081526004016108f59061245e565b60405180910390fd5b61090a848484846112ae565b50505050565b60606008805461091f90612297565b80601f016020809104026020016040519081016040528092919081815260200182805461094b90612297565b80156109985780601f1061096d57610100808354040283529160200191610998565b820191906000526020600020905b81548152906001019060200180831161097b57829003601f168201915b5050505050905090565b60606109ad82610c6b565b60006006600084815260200190815260200160002080546109cd90612297565b80601f01602080910402602001604051908101604052809291908181526020018280546109f990612297565b8015610a465780601f10610a1b57610100808354040283529160200191610a46565b820191906000526020600020905b815481529060010190602001808311610a2957829003601f168201915b505050505090506000610a5761130a565b90506000815103610a6c578192505050610aaf565b600082511115610aa1578082604051602001610a899291906125b8565b60405160208183030381529060405292505050610aaf565b610aaa84611321565b925050505b919050565b8060089081610ac39190612788565b50600160076000828254610ad79190612889565b92505081905550610aea33600754611389565b610af6600754826113a7565b3073ffffffffffffffffffffffffffffffffffffffff163373ffffffffffffffffffffffffffffffffffffffff166007547f281e6bca59c0ded461563e53c1734e144345053c65610a7dd17645d71af74e3a60405160405180910390a450565b6000600560008473ffffffffffffffffffffffffffffffffffffffff1673ffffffffffffffffffffffffffffffffffffffff16815260200190815260200160002060008373ffffffffffffffffffffffffffffffffffffffff1673ffffffffffffffffffffffffffffffffffffffff16815260200190815260200160002060009054906101000a900460ff16905092915050565b6000600960009054906101000a900460ff16905090565b60007f01ffc9a7000000000000000000000000000000000000000000000000000000007bffffffffffffffffffffffffffffffffffffffffffffffffffffffff1916827bffffffffffffffffffffffffffffffffffffffffffffffffffffffff1916149050919050565b610c7481611414565b610cb3576040517f08c379a0000000000000000000000000000000000000000000000000000000008152600401610caa906124ca565b60405180910390fd5b50565b600033905090565b816004600083815260200190815260200160002060006101000a81548173ffffffffffffffffffffffffffffffffffffffff021916908373ffffffffffffffffffffffffffffffffffffffff160217905550808273ffffffffffffffffffffffffffffffffffffffff16610d31836106bf565b73ffffffffffffffffffffffffffffffffffffffff167f8c5be1e5ebec7d5bd14f71427d1e84f3dd0314c0f7b2291e5b200ac8c7c3b92560405160405180910390a45050565b600080610d83836106bf565b90508073ffffffffffffffffffffffffffffffffffffffff168473ffffffffffffffffffffffffffffffffffffffff161480610dc55750610dc48185610b56565b5b80610e0357508373ffffffffffffffffffffffffffffffffffffffff16610deb846104e2565b73ffffffffffffffffffffffffffffffffffffffff16145b91505092915050565b8273ffffffffffffffffffffffffffffffffffffffff16610e2c826106bf565b73ffffffffffffffffffffffffffffffffffffffff1614610e82576040517f08c379a0000000000000000000000000000000000000000000000000000000008152600401610e799061292f565b60405180910390fd5b600073ffffffffffffffffffffffffffffffffffffffff168273ffffffffffffffffffffffffffffffffffffffff1603610ef1576040517f08c379a0000000000000000000000000000000000000000000000000000000008152600401610ee8906129c1565b60405180910390fd5b610efe8383836001611455565b8273ffffffffffffffffffffffffffffffffffffffff16610f1e826106bf565b73ffffffffffffffffffffffffffffffffffffffff1614610f74576040517f08c379a0000000000000000000000000000000000000000000000000000000008152600401610f6b9061292f565b60405180910390fd5b6004600082815260200190815260200160002060006101000a81549073ffffffffffffffffffffffffffffffffffffffff02191690556001600360008573ffffffffffffffffffffffffffffffffffffffff1673ffffffffffffffffffffffffffffffffffffffff168152602001908152602001600020600082825403925050819055506001600360008473ffffffffffffffffffffffffffffffffffffffff1673ffffffffffffffffffffffffffffffffffffffff16815260200190815260200160002060008282540192505081905550816002600083815260200190815260200160002060006101000a81548173ffffffffffffffffffffffffffffffffffffffff021916908373ffffffffffffffffffffffffffffffffffffffff160217905550808273ffffffffffffffffffffffffffffffffffffffff168473ffffffffffffffffffffffffffffffffffffffff167fddf252ad1be2c89b69c2b068fc378daa952ba7f163c4a11628f55a4df523b3ef60405160405180910390a4611100838383600161157b565b505050565b60006002600083815260200190815260200160002060009054906101000a900473ffffffffffffffffffffffffffffffffffffffff169050919050565b8173ffffffffffffffffffffffffffffffffffffffff168373ffffffffffffffffffffffffffffffffffffffff16036111b0576040517f08c379a00000000000000000000000000000000000000000000000000000000081526004016111a790612a2d565b60405180910390fd5b80600560008573ffffffffffffffffffffffffffffffffffffffff1673ffffffffffffffffffffffffffffffffffffffff16815260200190815260200160002060008473ffffffffffffffffffffffffffffffffffffffff1673ffffffffffffffffffffffffffffffffffffffff16815260200190815260200160002060006101000a81548160ff0219169083151502179055508173ffffffffffffffffffffffffffffffffffffffff168373ffffffffffffffffffffffffffffffffffffffff167f17307eab39ab6107e8899845ad3d59bd9653f200f220920489ca2b5937696c31836040516112a19190611c78565b60405180910390a3505050565b6112b9848484610e0c565b6112c584848484611581565b611304576040517f08c379a00000000000000000000000000000000000000000000000000000000081526004016112fb90612abf565b60405180910390fd5b50505050565b606060405180602001604052806000815250905090565b606061132c82610c6b565b600061133661130a565b905060008151116113565760405180602001604052806000815250611381565b8061136084611708565b6040516020016113719291906125b8565b6040516020818303038152906040525b915050919050565b6113a38282604051806020016040528060008152506117d6565b5050565b6113b082611414565b6113ef576040517f08c379a00000000000000000000000000000000000000000000000000000000081526004016113e690612b51565b60405180910390fd5b8060066000848152602001908152602001600020908161140f9190612788565b505050565b60008073ffffffffffffffffffffffffffffffffffffffff1661143683611105565b73ffffffffffffffffffffffffffffffffffffffff1614159050919050565b600181111561157557600073ffffffffffffffffffffffffffffffffffffffff168473ffffffffffffffffffffffffffffffffffffffff16146114e95780600360008673ffffffffffffffffffffffffffffffffffffffff1673ffffffffffffffffffffffffffffffffffffffff16815260200190815260200160002060008282546114e19190612b71565b925050819055505b600073ffffffffffffffffffffffffffffffffffffffff168373ffffffffffffffffffffffffffffffffffffffff16146115745780600360008573ffffffffffffffffffffffffffffffffffffffff1673ffffffffffffffffffffffffffffffffffffffff168152602001908152602001600020600082825461156c9190612889565b925050819055505b5b50505050565b50505050565b60006115a28473ffffffffffffffffffffffffffffffffffffffff16611831565b156116fb578373ffffffffffffffffffffffffffffffffffffffff1663150b7a026115cb610cb6565b8786866040518563ffffffff1660e01b81526004016115ed9493929190612bfa565b6020604051808303816000875af192505050801561162957506040513d601f19601f820116820180604052508101906116269190612c5b565b60015b6116ab573d8060008114611659576040519150601f19603f3d011682016040523d82523d6000602084013e61165e565b606091505b5060008151036116a3576040517f08c379a000000000000000000000000000000000000000000000000000000000815260040161169a90612abf565b60405180910390fd5b805181602001fd5b63150b7a0260e01b7bffffffffffffffffffffffffffffffffffffffffffffffffffffffff1916817bffffffffffffffffffffffffffffffffffffffffffffffffffffffff191614915050611700565b600190505b949350505050565b60606000600161171784611854565b01905060008167ffffffffffffffff81111561173657611735611f90565b5b6040519080825280601f01601f1916602001820160405280156117685781602001600182028036833780820191505090505b509050600082602001820190505b6001156117cb578080600190039150507f3031323334353637383961626364656600000000000000000000000000000000600a86061a8153600a85816117bf576117be612c88565b5b04945060008503611776575b819350505050919050565b6117e083836119a7565b6117ed6000848484611581565b61182c576040517f08c379a000000000000000000000000000000000000000000000000000000000815260040161182390612abf565b60405180910390fd5b505050565b6000808273ffffffffffffffffffffffffffffffffffffffff163b119050919050565b600080600090507a184f03e93ff9f4daa797ed6e38ed64bf6a1f01000000000000000083106118b2577a184f03e93ff9f4daa797ed6e38ed64bf6a1f01000000000000000083816118a8576118a7612c88565b5b0492506040810190505b6d04ee2d6d415b85acef810000000083106118ef576d04ee2d6d415b85acef810000000083816118e5576118e4612c88565b5b0492506020810190505b662386f26fc10000831061191e57662386f26fc10000838161191457611913612c88565b5b0492506010810190505b6305f5e1008310611947576305f5e100838161193d5761193c612c88565b5b0492506008810190505b612710831061196c57612710838161196257611961612c88565b5b0492506004810190505b6064831061198f576064838161198557611984612c88565b5b0492506002810190505b600a831061199e576001810190505b80915050919050565b600073ffffffffffffffffffffffffffffffffffffffff168273ffffffffffffffffffffffffffffffffffffffff1603611a16576040517f08c379a0000000000000000000000000000000000000000000000000000000008152600401611a0d90612d03565b60405180910390fd5b611a1f81611414565b15611a5f576040517f08c379a0000000000000000000000000000000000000000000000000000000008152600401611a5690612d6f565b60405180910390fd5b611a6d600083836001611455565b611a7681611414565b15611ab6576040517f08c379a0000000000000000000000000000000000000000000000000000000008152600401611aad90612d6f565b60405180910390fd5b6001600360008473ffffffffffffffffffffffffffffffffffffffff1673ffffffffffffffffffffffffffffffffffffffff16815260200190815260200160002060008282540192505081905550816002600083815260200190815260200160002060006101000a81548173ffffffffffffffffffffffffffffffffffffffff021916908373ffffffffffffffffffffffffffffffffffffffff160217905550808273ffffffffffffffffffffffffffffffffffffffff16600073ffffffffffffffffffffffffffffffffffffffff167fddf252ad1be2c89b69c2b068fc378daa952ba7f163c4a11628f55a4df523b3ef60405160405180910390a4611bc060008383600161157b565b5050565b6000604051905090565b600080fd5b600080fd5b60007fffffffff0000000000000000000000000000000000000000000000000000000082169050919050565b611c0d81611bd8565b8114611c1857600080fd5b50565b600081359050611c2a81611c04565b92915050565b600060208284031215611c4657611c45611bce565b5b6000611c5484828501611c1b565b91505092915050565b60008115159050919050565b611c7281611c5d565b82525050565b6000602082019050611c8d6000830184611c69565b92915050565b600081519050919050565b600082825260208201905092915050565b60005b83811015611ccd578082015181840152602081019050611cb2565b60008484015250505050565b6000601f19601f8301169050919050565b6000611cf582611c93565b611cff8185611c9e565b9350611d0f818560208601611caf565b611d1881611cd9565b840191505092915050565b60006020820190508181036000830152611d3d8184611cea565b905092915050565b6000819050919050565b611d5881611d45565b8114611d6357600080fd5b50565b600081359050611d7581611d4f565b92915050565b600060208284031215611d9157611d90611bce565b5b6000611d9f84828501611d66565b91505092915050565b600073ffffffffffffffffffffffffffffffffffffffff82169050919050565b6000611dd382611da8565b9050919050565b611de381611dc8565b82525050565b6000602082019050611dfe6000830184611dda565b92915050565b611e0d81611dc8565b8114611e1857600080fd5b50565b600081359050611e2a81611e04565b92915050565b60008060408385031215611e4757611e46611bce565b5b6000611e5585828601611e1b565b9250506020611e6685828601611d66565b9150509250929050565b600080600060608486031215611e8957611e88611bce565b5b6000611e9786828701611e1b565b9350506020611ea886828701611e1b565b9250506040611eb986828701611d66565b9150509250925092565b611ecc81611d45565b82525050565b6000602082019050611ee76000830184611ec3565b92915050565b600060208284031215611f0357611f02611bce565b5b6000611f1184828501611e1b565b91505092915050565b611f2381611c5d565b8114611f2e57600080fd5b50565b600081359050611f4081611f1a565b92915050565b60008060408385031215611f5d57611f5c611bce565b5b6000611f6b85828601611e1b565b9250506020611f7c85828601611f31565b9150509250929050565b600080fd5b600080fd5b7f4e487b7100000000000000000000000000000000000000000000000000000000600052604160045260246000fd5b611fc882611cd9565b810181811067ffffffffffffffff82111715611fe757611fe6611f90565b5b80604052505050565b6000611ffa611bc4565b90506120068282611fbf565b919050565b600067ffffffffffffffff82111561202657612025611f90565b5b61202f82611cd9565b9050602081019050919050565b82818337600083830152505050565b600061205e6120598461200b565b611ff0565b90508281526020810184848401111561207a57612079611f8b565b5b61208584828561203c565b509392505050565b600082601f8301126120a2576120a1611f86565b5b81356120b284826020860161204b565b91505092915050565b600080600080608085870312156120d5576120d4611bce565b5b60006120e387828801611e1b565b94505060206120f487828801611e1b565b935050604061210587828801611d66565b925050606085013567ffffffffffffffff81111561212657612125611bd3565b5b6121328782880161208d565b91505092959194509250565b600067ffffffffffffffff82111561215957612158611f90565b5b61216282611cd9565b9050602081019050919050565b600061218261217d8461213e565b611ff0565b90508281526020810184848401111561219e5761219d611f8b565b5b6121a984828561203c565b509392505050565b600082601f8301126121c6576121c5611f86565b5b81356121d684826020860161216f565b91505092915050565b6000602082840312156121f5576121f4611bce565b5b600082013567ffffffffffffffff81111561221357612212611bd3565b5b61221f848285016121b1565b91505092915050565b6000806040838503121561223f5761223e611bce565b5b600061224d85828601611e1b565b925050602061225e85828601611e1b565b9150509250929050565b7f4e487b7100000000000000000000000000000000000000000000000000000000600052602260045260246000fd5b600060028204905060018216806122af57607f821691505b6020821081036122c2576122c1612268565b5b50919050565b7f4552433732313a20617070726f76616c20746f2063757272656e74206f776e6560008201527f7200000000000000000000000000000000000000000000000000000000000000602082015250565b6000612324602183611c9e565b915061232f826122c8565b604082019050919050565b6000602082019050818103600083015261235381612317565b9050919050565b7f4552433732313a20617070726f76652063616c6c6572206973206e6f7420746f60008201527f6b656e206f776e6572206f7220617070726f76656420666f7220616c6c000000602082015250565b60006123b6603d83611c9e565b91506123c18261235a565b604082019050919050565b600060208201905081810360008301526123e5816123a9565b9050919050565b7f4552433732313a2063616c6c6572206973206e6f7420746f6b656e206f776e6560008201527f72206f7220617070726f76656400000000000000000000000000000000000000602082015250565b6000612448602d83611c9e565b9150612453826123ec565b604082019050919050565b600060208201905081810360008301526124778161243b565b9050919050565b7f4552433732313a20696e76616c696420746f6b656e2049440000000000000000600082015250565b60006124b4601883611c9e565b91506124bf8261247e565b602082019050919050565b600060208201905081810360008301526124e3816124a7565b9050919050565b7f4552433732313a2061646472657373207a65726f206973206e6f74206120766160008201527f6c6964206f776e65720000000000000000000000000000000000000000000000602082015250565b6000612546602983611c9e565b9150612551826124ea565b604082019050919050565b6000602082019050818103600083015261257581612539565b9050919050565b600081905092915050565b600061259282611c93565b61259c818561257c565b93506125ac818560208601611caf565b80840191505092915050565b60006125c48285612587565b91506125d08284612587565b91508190509392505050565b60008190508160005260206000209050919050565b60006020601f8301049050919050565b600082821b905092915050565b60006008830261263e7fffffffffffffffffffffffffffffffffffffffffffffffffffffffffffffffff82612601565b6126488683612601565b95508019841693508086168417925050509392505050565b6000819050919050565b600061268561268061267b84611d45565b612660565b611d45565b9050919050565b6000819050919050565b61269f8361266a565b6126b36126ab8261268c565b84845461260e565b825550505050565b600090565b6126c86126bb565b6126d3818484612696565b505050565b5b818110156126f7576126ec6000826126c0565b6001810190506126d9565b5050565b601f82111561273c5761270d816125dc565b612716846125f1565b81016020851015612725578190505b612739612731856125f1565b8301826126d8565b50505b505050565b600082821c905092915050565b600061275f60001984600802612741565b1980831691505092915050565b6000612778838361274e565b9150826002028217905092915050565b61279182611c93565b67ffffffffffffffff8111156127aa576127a9611f90565b5b6127b48254612297565b6127bf8282856126fb565b600060209050601f8311600181146127f257600084156127e0578287015190505b6127ea858261276c565b865550612852565b601f198416612800866125dc565b60005b8281101561282857848901518255600182019150602085019450602081019050612803565b868310156128455784890151612841601f89168261274e565b8355505b6001600288020188555050505b505050505050565b7f4e487b7100000000000000000000000000000000000000000000000000000000600052601160045260246000fd5b600061289482611d45565b915061289f83611d45565b92508282019050808211156128b7576128b661285a565b5b92915050565b7f4552433732313a207472616e736665722066726f6d20696e636f72726563742060008201527f6f776e6572000000000000000000000000000000000000000000000000000000602082015250565b6000612919602583611c9e565b9150612924826128bd565b604082019050919050565b600060208201905081810360008301526129488161290c565b9050919050565b7f4552433732313a207472616e7366657220746f20746865207a65726f2061646460008201527f7265737300000000000000000000000000000000000000000000000000000000602082015250565b60006129ab602483611c9e565b91506129b68261294f565b604082019050919050565b600060208201905081810360008301526129da8161299e565b9050919050565b7f4552433732313a20617070726f766520746f2063616c6c657200000000000000600082015250565b6000612a17601983611c9e565b9150612a22826129e1565b602082019050919050565b60006020820190508181036000830152612a4681612a0a565b9050919050565b7f4552433732313a207472616e7366657220746f206e6f6e20455243373231526560008201527f63656976657220696d706c656d656e7465720000000000000000000000000000602082015250565b6000612aa9603283611c9e565b9150612ab482612a4d565b604082019050919050565b60006020820190508181036000830152612ad881612a9c565b9050919050565b7f45524337323155524953746f726167653a2055524920736574206f66206e6f6e60008201527f6578697374656e7420746f6b656e000000000000000000000000000000000000602082015250565b6000612b3b602e83611c9e565b9150612b4682612adf565b604082019050919050565b60006020820190508181036000830152612b6a81612b2e565b9050919050565b6000612b7c82611d45565b9150612b8783611d45565b9250828203905081811115612b9f57612b9e61285a565b5b92915050565b600081519050919050565b600082825260208201905092915050565b6000612bcc82612ba5565b612bd68185612bb0565b9350612be6818560208601611caf565b612bef81611cd9565b840191505092915050565b6000608082019050612c0f6000830187611dda565b612c1c6020830186611dda565b612c296040830185611ec3565b8181036060830152612c3b8184612bc1565b905095945050505050565b600081519050612c5581611c04565b92915050565b600060208284031215612c7157612c70611bce565b5b6000612c7f84828501612c46565b91505092915050565b7f4e487b7100000000000000000000000000000000000000000000000000000000600052601260045260246000fd5b7f4552433732313a206d696e7420746f20746865207a65726f2061646472657373600082015250565b6000612ced602083611c9e565b9150612cf882612cb7565b602082019050919050565b60006020820190508181036000830152612d1c81612ce0565b9050919050565b7f4552433732313a20746f6b656e20616c7265616479206d696e74656400000000600082015250565b6000612d59601c83611c9e565b9150612d6482612d23565b602082019050919050565b60006020820190508181036000830152612d8881612d4c565b905091905056fea26469706673582212209ddcd34fd0483bd90dc0ac64ad8566819cf84a6f6289e193b323a2ef4194c85964736f6c63430008110033",
  "devdoc": {
    "kind": "dev",
    "methods": {
      "approve(address,uint256)": {
        "details": "See {IERC721-approve}."
      },
      "balanceOf(address)": {
        "details": "See {IERC721-balanceOf}."
      },
      "getApproved(uint256)": {
        "details": "See {IERC721-getApproved}."
      },
      "isApprovedForAll(address,address)": {
        "details": "See {IERC721-isApprovedForAll}."
      },
      "name()": {
        "details": "See {IERC721Metadata-name}."
      },
      "ownerOf(uint256)": {
        "details": "See {IERC721-ownerOf}."
      },
      "safeTransferFrom(address,address,uint256)": {
        "details": "See {IERC721-safeTransferFrom}."
      },
      "safeTransferFrom(address,address,uint256,bytes)": {
        "details": "See {IERC721-safeTransferFrom}."
      },
      "setApprovalForAll(address,bool)": {
        "details": "See {IERC721-setApprovalForAll}."
      },
      "supportsInterface(bytes4)": {
        "details": "See {IERC165-supportsInterface}."
      },
      "symbol()": {
        "details": "See {IERC721Metadata-symbol}."
      },
      "tokenURI(uint256)": {
        "details": "See {IERC721Metadata-tokenURI}."
      },
      "transferFrom(address,address,uint256)": {
        "details": "See {IERC721-transferFrom}."
      }
    },
    "version": 1
  },
  "userdoc": {
    "kind": "user",
    "methods": {},
    "version": 1
  },
  "storageLayout": {
    "storage": [
      {
        "astId": 25,
        "contract": "contracts/test/BasicNft.sol:BasicNft",
        "label": "_name",
        "offset": 0,
        "slot": "0",
        "type": "t_string_storage"
      },
      {
        "astId": 27,
        "contract": "contracts/test/BasicNft.sol:BasicNft",
        "label": "_symbol",
        "offset": 0,
        "slot": "1",
        "type": "t_string_storage"
      },
      {
        "astId": 31,
        "contract": "contracts/test/BasicNft.sol:BasicNft",
        "label": "_owners",
        "offset": 0,
        "slot": "2",
        "type": "t_mapping(t_uint256,t_address)"
      },
      {
        "astId": 35,
        "contract": "contracts/test/BasicNft.sol:BasicNft",
        "label": "_balances",
        "offset": 0,
        "slot": "3",
        "type": "t_mapping(t_address,t_uint256)"
      },
      {
        "astId": 39,
        "contract": "contracts/test/BasicNft.sol:BasicNft",
        "label": "_tokenApprovals",
        "offset": 0,
        "slot": "4",
        "type": "t_mapping(t_uint256,t_address)"
      },
      {
        "astId": 45,
        "contract": "contracts/test/BasicNft.sol:BasicNft",
        "label": "_operatorApprovals",
        "offset": 0,
        "slot": "5",
        "type": "t_mapping(t_address,t_mapping(t_address,t_bool))"
      },
      {
        "astId": 1091,
        "contract": "contracts/test/BasicNft.sol:BasicNft",
        "label": "_tokenURIs",
        "offset": 0,
        "slot": "6",
        "type": "t_mapping(t_uint256,t_string_storage)"
      },
      {
        "astId": 2668,
        "contract": "contracts/test/BasicNft.sol:BasicNft",
        "label": "s_tokenCounter",
        "offset": 0,
        "slot": "7",
        "type": "t_uint256"
      },
      {
        "astId": 2670,
        "contract": "contracts/test/BasicNft.sol:BasicNft",
        "label": "s_TokenUri",
        "offset": 0,
        "slot": "8",
        "type": "t_string_storage"
      },
      {
        "astId": 2672,
        "contract": "contracts/test/BasicNft.sol:BasicNft",
        "label": "s_initialized",
        "offset": 0,
        "slot": "9",
        "type": "t_bool"
      }
    ],
    "types": {
      "t_address": {
        "encoding": "inplace",
        "label": "address",
        "numberOfBytes": "20"
      },
      "t_bool": {
        "encoding": "inplace",
        "label": "bool",
        "numberOfBytes": "1"
      },
      "t_mapping(t_address,t_bool)": {
        "encoding": "mapping",
        "key": "t_address",
        "label": "mapping(address => bool)",
        "numberOfBytes": "32",
        "value": "t_bool"
      },
      "t_mapping(t_address,t_mapping(t_address,t_bool))": {
        "encoding": "mapping",
        "key": "t_address",
        "label": "mapping(address => mapping(address => bool))",
        "numberOfBytes": "32",
        "value": "t_mapping(t_address,t_bool)"
      },
      "t_mapping(t_address,t_uint256)": {
        "encoding": "mapping",
        "key": "t_address",
        "label": "mapping(address => uint256)",
        "numberOfBytes": "32",
        "value": "t_uint256"
      },
      "t_mapping(t_uint256,t_address)": {
        "encoding": "mapping",
        "key": "t_uint256",
        "label": "mapping(uint256 => address)",
        "numberOfBytes": "32",
        "value": "t_address"
      },
      "t_mapping(t_uint256,t_string_storage)": {
        "encoding": "mapping",
        "key": "t_uint256",
        "label": "mapping(uint256 => string)",
        "numberOfBytes": "32",
        "value": "t_string_storage"
      },
      "t_string_storage": {
        "encoding": "bytes",
        "label": "string",
        "numberOfBytes": "32"
      },
      "t_uint256": {
        "encoding": "inplace",
        "label": "uint256",
        "numberOfBytes": "32"
      }
    }
  }
}