{
  "address": "0xe7f1725E7734CE288F8367e1Bb143E90bb3F0512",
  "abi": [
    {
      "inputs": [],
      "name": "NotOwner",
      "type": "error"
    },
    {
      "anonymous": false,
      "inputs": [
        {
          "indexed": true,
          "internalType": "address",
          "name": "ownerAddress",
          "type": "address"
        },
        {
          "indexed": true,
          "internalType": "address",
          "name": "propertyAddress",
          "type": "address"
        },
        {
          "indexed": true,
          "internalType": "uint256",
          "name": "tokenId",
          "type": "uint256"
        }
      ],
      "name": "ItemSold",
      "type": "event"
    },
    {
      "inputs": [
        {
          "internalType": "address",
          "name": "propertyAddress",
          "type": "address"
        },
        {
          "internalType": "uint256",
          "name": "tokenId",
          "type": "uint256"
        }
      ],
      "name": "checkOwner",
      "outputs": [
        {
          "internalType": "address",
          "name": "",
          "type": "address"
        }
      ],
      "stateMutability": "view",
      "type": "function"
    },
    {
      "inputs": [
        {
          "internalType": "address",
          "name": "propertyAddress",
          "type": "address"
        },
        {
          "internalType": "uint256",
          "name": "tokenId",
          "type": "uint256"
        },
        {
          "internalType": "address",
          "name": "ownerAddress",
          "type": "address"
        }
      ],
      "name": "transferItem",
      "outputs": [],
      "stateMutability": "nonpayable",
      "type": "function"
    }
  ],
  "transactionHash": "0xfcfb52323bbaf0dd5f5134168e27baa882729b43e88717641cc007dc027e9b49",
  "args": [],
  "numDeployments": 1,
  "solcInputHash": "e794728ca48a39b80a290d1d505773ad",
  "bytecode": "0x608060405234801561001057600080fd5b50610504806100206000396000f3fe608060405234801561001057600080fd5b50600436106100365760003560e01c806301cdc3c91461003b57806399ef76a01461006b575b600080fd5b6100556004803603810190610050919061036e565b610087565b60405161006291906103bd565b60405180910390f35b610085600480360381019061008091906103d8565b610116565b005b60008083905060008173ffffffffffffffffffffffffffffffffffffffff16636352211e856040518263ffffffff1660e01b81526004016100c8919061043a565b602060405180830381865afa1580156100e5573d6000803e3d6000fd5b505050506040513d601f19601f82011682018060405250810190610109919061046a565b9050809250505092915050565b828233600083905060008173ffffffffffffffffffffffffffffffffffffffff16636352211e856040518263ffffffff1660e01b8152600401610159919061043a565b602060405180830381865afa158015610176573d6000803e3d6000fd5b505050506040513d601f19601f8201168201806040525081019061019a919061046a565b90508073ffffffffffffffffffffffffffffffffffffffff168373ffffffffffffffffffffffffffffffffffffffff1614610201576040517f30cd747100000000000000000000000000000000000000000000000000000000815260040160405180910390fd5b8773ffffffffffffffffffffffffffffffffffffffff166342842e0e33888a6040518463ffffffff1660e01b815260040161023e93929190610497565b600060405180830381600087803b15801561025857600080fd5b505af115801561026c573d6000803e3d6000fd5b50505050868873ffffffffffffffffffffffffffffffffffffffff168773ffffffffffffffffffffffffffffffffffffffff167f46782f0e6d78441c8eb94ae065d50ff717ce627040111c23f781e52b94b79d8360405160405180910390a45050505050505050565b600080fd5b600073ffffffffffffffffffffffffffffffffffffffff82169050919050565b6000610305826102da565b9050919050565b610315816102fa565b811461032057600080fd5b50565b6000813590506103328161030c565b92915050565b6000819050919050565b61034b81610338565b811461035657600080fd5b50565b60008135905061036881610342565b92915050565b60008060408385031215610385576103846102d5565b5b600061039385828601610323565b92505060206103a485828601610359565b9150509250929050565b6103b7816102fa565b82525050565b60006020820190506103d260008301846103ae565b92915050565b6000806000606084860312156103f1576103f06102d5565b5b60006103ff86828701610323565b935050602061041086828701610359565b925050604061042186828701610323565b9150509250925092565b61043481610338565b82525050565b600060208201905061044f600083018461042b565b92915050565b6000815190506104648161030c565b92915050565b6000602082840312156104805761047f6102d5565b5b600061048e84828501610455565b91505092915050565b60006060820190506104ac60008301866103ae565b6104b960208301856103ae565b6104c6604083018461042b565b94935050505056fea26469706673582212205e5bd09175ee1710cc99a95612dac4588e1cf68a053b9f400f43ef9c2ad401bf64736f6c63430008110033",
  "devdoc": {
    "kind": "dev",
    "methods": {},
    "version": 1
  },
  "userdoc": {
    "kind": "user",
    "methods": {},
    "version": 1
  },
  "storageLayout": {
    "storage": [],
    "types": null
  }
}