{
  "address": "0xe7f1725E7734CE288F8367e1Bb143E90bb3F0512",
  "abi": [
    {
      "inputs": [],
      "name": "NotOwner",
      "type": "error"
    },
    {
      "anonymous": false,
      "inputs": [
        {
          "indexed": true,
          "internalType": "address",
          "name": "ownerAddress",
          "type": "address"
        },
        {
          "indexed": true,
          "internalType": "address",
          "name": "propertyAddress",
          "type": "address"
        },
        {
          "indexed": true,
          "internalType": "uint256",
          "name": "tokenId",
          "type": "uint256"
        }
      ],
      "name": "ItemSold",
      "type": "event"
    },
    {
      "inputs": [
        {
          "internalType": "address",
          "name": "propertyAddress",
          "type": "address"
        },
        {
          "internalType": "uint256",
          "name": "tokenId",
          "type": "uint256"
        },
        {
          "internalType": "address",
          "name": "ownerAddress",
          "type": "address"
        }
      ],
      "name": "transferItem",
      "outputs": [],
      "stateMutability": "nonpayable",
      "type": "function"
    }
  ],
  "transactionHash": "0x1a2f8c7e499e77fc361e0aa426547c17e3e86fdb8fc0f00415e86558ed7f2246",
  "args": [],
  "numDeployments": 1,
  "solcInputHash": "092c9a1aa43b3c05323da11d9925b07c",
  "bytecode": "0x608060405234801561001057600080fd5b506103df806100206000396000f3fe608060405234801561001057600080fd5b506004361061002b5760003560e01c806399ef76a014610030575b600080fd5b61004a600480360381019061004591906102a4565b61004c565b005b828233600083905060008173ffffffffffffffffffffffffffffffffffffffff16636352211e856040518263ffffffff1660e01b815260040161008f9190610306565b602060405180830381865afa1580156100ac573d6000803e3d6000fd5b505050506040513d601f19601f820116820180604052508101906100d09190610336565b90508073ffffffffffffffffffffffffffffffffffffffff168373ffffffffffffffffffffffffffffffffffffffff1614610137576040517f30cd747100000000000000000000000000000000000000000000000000000000815260040160405180910390fd5b8773ffffffffffffffffffffffffffffffffffffffff166342842e0e33888a6040518463ffffffff1660e01b815260040161017493929190610372565b600060405180830381600087803b15801561018e57600080fd5b505af11580156101a2573d6000803e3d6000fd5b50505050868873ffffffffffffffffffffffffffffffffffffffff168773ffffffffffffffffffffffffffffffffffffffff167f46782f0e6d78441c8eb94ae065d50ff717ce627040111c23f781e52b94b79d8360405160405180910390a45050505050505050565b600080fd5b600073ffffffffffffffffffffffffffffffffffffffff82169050919050565b600061023b82610210565b9050919050565b61024b81610230565b811461025657600080fd5b50565b60008135905061026881610242565b92915050565b6000819050919050565b6102818161026e565b811461028c57600080fd5b50565b60008135905061029e81610278565b92915050565b6000806000606084860312156102bd576102bc61020b565b5b60006102cb86828701610259565b93505060206102dc8682870161028f565b92505060406102ed86828701610259565b9150509250925092565b6103008161026e565b82525050565b600060208201905061031b60008301846102f7565b92915050565b60008151905061033081610242565b92915050565b60006020828403121561034c5761034b61020b565b5b600061035a84828501610321565b91505092915050565b61036c81610230565b82525050565b60006060820190506103876000830186610363565b6103946020830185610363565b6103a160408301846102f7565b94935050505056fea264697066735822122053455e52a90917223a696f2bb4def77084e9de53c8fd643fcc3f306eae6627a064736f6c63430008110033",
  "devdoc": {
    "kind": "dev",
    "methods": {},
    "version": 1
  },
  "userdoc": {
    "kind": "user",
    "methods": {},
    "version": 1
  },
  "storageLayout": {
    "storage": [],
    "types": null
  }
}