{
  "address": "0x9FD6daD42ee865E288914A8845D8e8b1fE8D4cda",
  "abi": [
    {
      "anonymous": false,
      "inputs": [
        {
          "indexed": true,
          "internalType": "address",
          "name": "buyer",
          "type": "address"
        },
        {
          "indexed": true,
          "internalType": "address",
          "name": "nftAddress",
          "type": "address"
        },
        {
          "indexed": true,
          "internalType": "uint256",
          "name": "tokenId",
          "type": "uint256"
        }
      ],
      "name": "ItemSold",
      "type": "event"
    },
    {
      "anonymous": false,
      "inputs": [
        {
          "indexed": true,
          "internalType": "address",
          "name": "owner",
          "type": "address"
        },
        {
          "indexed": true,
          "internalType": "address",
          "name": "nftAddress",
          "type": "address"
        },
        {
          "indexed": true,
          "internalType": "uint256",
          "name": "tokenId",
          "type": "uint256"
        }
      ],
      "name": "MyProperty",
      "type": "event"
    },
    {
      "inputs": [
        {
          "internalType": "address",
          "name": "nftAddress",
          "type": "address"
        },
        {
          "internalType": "uint256",
          "name": "tokenId",
          "type": "uint256"
        },
        {
          "internalType": "address",
          "name": "buyer",
          "type": "address"
        }
      ],
      "name": "transferItem",
      "outputs": [],
      "stateMutability": "nonpayable",
      "type": "function"
    }
  ],
  "transactionHash": "0x2a0fa62116309c96e4b6f114b1b094ab4670070734ffe57970fc3332a48df72e",
  "args": [],
  "numDeployments": 2,
  "solcInputHash": "907d50f1dc561ca72695f85d3b110cca",
  "bytecode": "0x608060405234801561001057600080fd5b50610292806100206000396000f3fe608060405234801561001057600080fd5b506004361061002b5760003560e01c806399ef76a014610030575b600080fd5b61004a600480360381019061004591906101b4565b61004c565b005b8273ffffffffffffffffffffffffffffffffffffffff166342842e0e3383856040518463ffffffff1660e01b815260040161008993929190610225565b600060405180830381600087803b1580156100a357600080fd5b505af11580156100b7573d6000803e3d6000fd5b50505050818173ffffffffffffffffffffffffffffffffffffffff163373ffffffffffffffffffffffffffffffffffffffff167f46782f0e6d78441c8eb94ae065d50ff717ce627040111c23f781e52b94b79d8360405160405180910390a4505050565b600080fd5b600073ffffffffffffffffffffffffffffffffffffffff82169050919050565b600061014b82610120565b9050919050565b61015b81610140565b811461016657600080fd5b50565b60008135905061017881610152565b92915050565b6000819050919050565b6101918161017e565b811461019c57600080fd5b50565b6000813590506101ae81610188565b92915050565b6000806000606084860312156101cd576101cc61011b565b5b60006101db86828701610169565b93505060206101ec8682870161019f565b92505060406101fd86828701610169565b9150509250925092565b61021081610140565b82525050565b61021f8161017e565b82525050565b600060608201905061023a6000830186610207565b6102476020830185610207565b6102546040830184610216565b94935050505056fea2646970667358221220b7747dacebdf49d4a310abc54d30b8f74bdf56e2aced4081875736ce5c65675864736f6c63430008110033",
  "devdoc": {
    "kind": "dev",
    "methods": {},
    "version": 1
  },
  "userdoc": {
    "kind": "user",
    "methods": {},
    "version": 1
  },
  "storageLayout": {
    "storage": [
      {
        "astId": 2679,
        "contract": "contracts/TransferProperty.sol:TransferProperty",
        "label": "seller",
        "offset": 0,
        "slot": "0",
        "type": "t_address"
      }
    ],
    "types": {
      "t_address": {
        "encoding": "inplace",
        "label": "address",
        "numberOfBytes": "20"
      }
    }
  }
}